{"contracts/Verification.sol":{"Verification":{"abi":[{"anonymous":false,"inputs":[{"indexed":true,"internalType":"address","name":"_user","type":"address"},{"indexed":true,"internalType":"bool","name":"_status","type":"bool"}],"name":"VerifyUser","type":"event"},{"inputs":[{"internalType":"bytes32","name":"_messageHash","type":"bytes32"}],"name":"getEthSignedMessageHash","outputs":[{"internalType":"bytes32","name":"","type":"bytes32"}],"stateMutability":"pure","type":"function"},{"inputs":[{"internalType":"address","name":"_to","type":"address"},{"internalType":"string","name":"_message","type":"string"},{"internalType":"uint256","name":"_nonce","type":"uint256"}],"name":"getMessageHash","outputs":[{"internalType":"bytes32","name":"","type":"bytes32"}],"stateMutability":"pure","type":"function"},{"inputs":[{"internalType":"bytes32","name":"_ethSignedMessageHash","type":"bytes32"},{"internalType":"bytes","name":"_signature","type":"bytes"}],"name":"recoverSigner","outputs":[{"internalType":"address","name":"","type":"address"}],"stateMutability":"pure","type":"function"},{"inputs":[{"internalType":"address","name":"_to","type":"address"},{"internalType":"bool","name":"_value","type":"bool"}],"name":"setVerifiedUsers","outputs":[],"stateMutability":"nonpayable","type":"function"},{"inputs":[{"internalType":"bytes","name":"sig","type":"bytes"}],"name":"splitSignature","outputs":[{"internalType":"bytes32","name":"r","type":"bytes32"},{"internalType":"bytes32","name":"s","type":"bytes32"},{"internalType":"uint8","name":"v","type":"uint8"}],"stateMutability":"pure","type":"function"},{"inputs":[{"internalType":"address","name":"","type":"address"}],"name":"verifiedUsers","outputs":[{"internalType":"bool","name":"","type":"bool"}],"stateMutability":"view","type":"function"},{"inputs":[{"internalType":"address","name":"_signer","type":"address"},{"internalType":"address","name":"_to","type":"address"},{"internalType":"string","name":"_message","type":"string"},{"internalType":"uint256","name":"_nonce","type":"uint256"},{"internalType":"bytes","name":"signature","type":"bytes"}],"name":"verify","outputs":[{"internalType":"bool","name":"","type":"bool"}],"stateMutability":"nonpayable","type":"function"}],"evm":{"bytecode":{"linkReferences":{},"object":"608060405234801561001057600080fd5b50610d6d806100206000396000f3fe608060405234801561001057600080fd5b506004361061007d5760003560e01c8063a7bb58031161005b578063a7bb580314610112578063d8bd4e3f14610144578063e35fe36614610160578063fa540801146101905761007d565b8063082d8f29146100825780631e31549e146100b257806397aba7f9146100e2575b600080fd5b61009c6004803603810190610097919061068e565b6101c0565b6040516100a99190610716565b60405180910390f35b6100cc60048036038101906100c791906107d2565b6101f6565b6040516100d991906108a0565b60405180910390f35b6100fc60048036038101906100f791906108e7565b61031f565b6040516101099190610952565b60405180910390f35b61012c6004803603810190610127919061096d565b61038e565b60405161013b939291906109d2565b60405180910390f35b61015e60048036038101906101599190610a35565b6103f6565b005b61017a60048036038101906101759190610a75565b610450565b60405161018791906108a0565b60405180910390f35b6101aa60048036038101906101a59190610aa2565b610470565b6040516101b79190610716565b60405180910390f35b60008383836040516020016101d793929190610ba9565b6040516020818303038152906040528051906020012090509392505050565b6000806102048686866101c0565b9050600061021182610470565b9050600061021f828661031f565b90508873ffffffffffffffffffffffffffffffffffffffff168173ffffffffffffffffffffffffffffffffffffffff16036102b75760016000808a73ffffffffffffffffffffffffffffffffffffffff1673ffffffffffffffffffffffffffffffffffffffff16815260200190815260200160002060006101000a81548160ff02191690831515021790555060019350505050610316565b60008060008a73ffffffffffffffffffffffffffffffffffffffff1673ffffffffffffffffffffffffffffffffffffffff16815260200190815260200160002060006101000a81548160ff021916908315150217905550600093505050505b95945050505050565b60008060008061032e8561038e565b925092509250600186828585604051600081526020016040526040516103579493929190610be2565b6020604051602081039080840390855afa158015610379573d6000803e3d6000fd5b50505060206040510351935050505092915050565b600080600060418451146103d7576040517f08c379a00000000000000000000000000000000000000000000000000000000081526004016103ce90610c84565b60405180910390fd5b6020840151925060408401519150606084015160001a90509193909250565b806000808473ffffffffffffffffffffffffffffffffffffffff1673ffffffffffffffffffffffffffffffffffffffff16815260200190815260200160002060006101000a81548160ff0219169083151502179055505050565b60006020528060005260406000206000915054906101000a900460ff1681565b6000816040516020016104839190610d11565b604051602081830303815290604052805190602001209050919050565b6000604051905090565b600080fd5b600080fd5b600073ffffffffffffffffffffffffffffffffffffffff82169050919050565b60006104df826104b4565b9050919050565b6104ef816104d4565b81146104fa57600080fd5b50565b60008135905061050c816104e6565b92915050565b600080fd5b600080fd5b6000601f19601f8301169050919050565b7f4e487b7100000000000000000000000000000000000000000000000000000000600052604160045260246000fd5b6105658261051c565b810181811067ffffffffffffffff821117156105845761058361052d565b5b80604052505050565b60006105976104a0565b90506105a3828261055c565b919050565b600067ffffffffffffffff8211156105c3576105c261052d565b5b6105cc8261051c565b9050602081019050919050565b82818337600083830152505050565b60006105fb6105f6846105a8565b61058d565b90508281526020810184848401111561061757610616610517565b5b6106228482856105d9565b509392505050565b600082601f83011261063f5761063e610512565b5b813561064f8482602086016105e8565b91505092915050565b6000819050919050565b61066b81610658565b811461067657600080fd5b50565b60008135905061068881610662565b92915050565b6000806000606084860312156106a7576106a66104aa565b5b60006106b5868287016104fd565b935050602084013567ffffffffffffffff8111156106d6576106d56104af565b5b6106e28682870161062a565b92505060406106f386828701610679565b9150509250925092565b6000819050919050565b610710816106fd565b82525050565b600060208201905061072b6000830184610707565b92915050565b600067ffffffffffffffff82111561074c5761074b61052d565b5b6107558261051c565b9050602081019050919050565b600061077561077084610731565b61058d565b90508281526020810184848401111561079157610790610517565b5b61079c8482856105d9565b509392505050565b600082601f8301126107b9576107b8610512565b5b81356107c9848260208601610762565b91505092915050565b600080600080600060a086880312156107ee576107ed6104aa565b5b60006107fc888289016104fd565b955050602061080d888289016104fd565b945050604086013567ffffffffffffffff81111561082e5761082d6104af565b5b61083a8882890161062a565b935050606061084b88828901610679565b925050608086013567ffffffffffffffff81111561086c5761086b6104af565b5b610878888289016107a4565b9150509295509295909350565b60008115159050919050565b61089a81610885565b82525050565b60006020820190506108b56000830184610891565b92915050565b6108c4816106fd565b81146108cf57600080fd5b50565b6000813590506108e1816108bb565b92915050565b600080604083850312156108fe576108fd6104aa565b5b600061090c858286016108d2565b925050602083013567ffffffffffffffff81111561092d5761092c6104af565b5b610939858286016107a4565b9150509250929050565b61094c816104d4565b82525050565b60006020820190506109676000830184610943565b92915050565b600060208284031215610983576109826104aa565b5b600082013567ffffffffffffffff8111156109a1576109a06104af565b5b6109ad848285016107a4565b91505092915050565b600060ff82169050919050565b6109cc816109b6565b82525050565b60006060820190506109e76000830186610707565b6109f46020830185610707565b610a0160408301846109c3565b949350505050565b610a1281610885565b8114610a1d57600080fd5b50565b600081359050610a2f81610a09565b92915050565b60008060408385031215610a4c57610a4b6104aa565b5b6000610a5a858286016104fd565b9250506020610a6b85828601610a20565b9150509250929050565b600060208284031215610a8b57610a8a6104aa565b5b6000610a99848285016104fd565b91505092915050565b600060208284031215610ab857610ab76104aa565b5b6000610ac6848285016108d2565b91505092915050565b60008160601b9050919050565b6000610ae782610acf565b9050919050565b6000610af982610adc565b9050919050565b610b11610b0c826104d4565b610aee565b82525050565b600081519050919050565b600081905092915050565b60005b83811015610b4b578082015181840152602081019050610b30565b60008484015250505050565b6000610b6282610b17565b610b6c8185610b22565b9350610b7c818560208601610b2d565b80840191505092915050565b6000819050919050565b610ba3610b9e82610658565b610b88565b82525050565b6000610bb58286610b00565b601482019150610bc58285610b57565b9150610bd18284610b92565b602082019150819050949350505050565b6000608082019050610bf76000830187610707565b610c0460208301866109c3565b610c116040830185610707565b610c1e6060830184610707565b95945050505050565b600082825260208201905092915050565b7f696e76616c6964207369676e6174757265206c656e6774680000000000000000600082015250565b6000610c6e601883610c27565b9150610c7982610c38565b602082019050919050565b60006020820190508181036000830152610c9d81610c61565b9050919050565b7f19457468657265756d205369676e6564204d6573736167653a0a333200000000600082015250565b6000610cda601c83610b22565b9150610ce582610ca4565b601c82019050919050565b6000819050919050565b610d0b610d06826106fd565b610cf0565b82525050565b6000610d1c82610ccd565b9150610d288284610cfa565b6020820191508190509291505056fea264697066735822122040c93abfd005ce72c6076fddad2f2960de39d6404102d93832ddbcfa3a0a8cfa64736f6c63430008120033","opcodes":"PUSH1 0x80 PUSH1 0x40 MSTORE CALLVALUE DUP1 ISZERO PUSH2 0x10 JUMPI PUSH1 0x0 DUP1 REVERT JUMPDEST POP PUSH2 0xD6D DUP1 PUSH2 0x20 PUSH1 0x0 CODECOPY PUSH1 0x0 RETURN INVALID PUSH1 0x80 PUSH1 0x40 MSTORE CALLVALUE DUP1 ISZERO PUSH2 0x10 JUMPI PUSH1 0x0 DUP1 REVERT JUMPDEST POP PUSH1 0x4 CALLDATASIZE LT PUSH2 0x7D JUMPI PUSH1 0x0 CALLDATALOAD PUSH1 0xE0 SHR DUP1 PUSH4 0xA7BB5803 GT PUSH2 0x5B JUMPI DUP1 PUSH4 0xA7BB5803 EQ PUSH2 0x112 JUMPI DUP1 PUSH4 0xD8BD4E3F EQ PUSH2 0x144 JUMPI DUP1 PUSH4 0xE35FE366 EQ PUSH2 0x160 JUMPI DUP1 PUSH4 0xFA540801 EQ PUSH2 0x190 JUMPI PUSH2 0x7D JUMP JUMPDEST DUP1 PUSH4 0x82D8F29 EQ PUSH2 0x82 JUMPI DUP1 PUSH4 0x1E31549E EQ PUSH2 0xB2 JUMPI DUP1 PUSH4 0x97ABA7F9 EQ PUSH2 0xE2 JUMPI JUMPDEST PUSH1 0x0 DUP1 REVERT JUMPDEST PUSH2 0x9C PUSH1 0x4 DUP1 CALLDATASIZE SUB DUP2 ADD SWAP1 PUSH2 0x97 SWAP2 SWAP1 PUSH2 0x68E JUMP JUMPDEST PUSH2 0x1C0 JUMP JUMPDEST PUSH1 0x40 MLOAD PUSH2 0xA9 SWAP2 SWAP1 PUSH2 0x716 JUMP JUMPDEST PUSH1 0x40 MLOAD DUP1 SWAP2 SUB SWAP1 RETURN JUMPDEST PUSH2 0xCC PUSH1 0x4 DUP1 CALLDATASIZE SUB DUP2 ADD SWAP1 PUSH2 0xC7 SWAP2 SWAP1 PUSH2 0x7D2 JUMP JUMPDEST PUSH2 0x1F6 JUMP JUMPDEST PUSH1 0x40 MLOAD PUSH2 0xD9 SWAP2 SWAP1 PUSH2 0x8A0 JUMP JUMPDEST PUSH1 0x40 MLOAD DUP1 SWAP2 SUB SWAP1 RETURN JUMPDEST PUSH2 0xFC PUSH1 0x4 DUP1 CALLDATASIZE SUB DUP2 ADD SWAP1 PUSH2 0xF7 SWAP2 SWAP1 PUSH2 0x8E7 JUMP JUMPDEST PUSH2 0x31F JUMP JUMPDEST PUSH1 0x40 MLOAD PUSH2 0x109 SWAP2 SWAP1 PUSH2 0x952 JUMP JUMPDEST PUSH1 0x40 MLOAD DUP1 SWAP2 SUB SWAP1 RETURN JUMPDEST PUSH2 0x12C PUSH1 0x4 DUP1 CALLDATASIZE SUB DUP2 ADD SWAP1 PUSH2 0x127 SWAP2 SWAP1 PUSH2 0x96D JUMP JUMPDEST PUSH2 0x38E JUMP JUMPDEST PUSH1 0x40 MLOAD PUSH2 0x13B SWAP4 SWAP3 SWAP2 SWAP1 PUSH2 0x9D2 JUMP JUMPDEST PUSH1 0x40 MLOAD DUP1 SWAP2 SUB SWAP1 RETURN JUMPDEST PUSH2 0x15E PUSH1 0x4 DUP1 CALLDATASIZE SUB DUP2 ADD SWAP1 PUSH2 0x159 SWAP2 SWAP1 PUSH2 0xA35 JUMP JUMPDEST PUSH2 0x3F6 JUMP JUMPDEST STOP JUMPDEST PUSH2 0x17A PUSH1 0x4 DUP1 CALLDATASIZE SUB DUP2 ADD SWAP1 PUSH2 0x175 SWAP2 SWAP1 PUSH2 0xA75 JUMP JUMPDEST PUSH2 0x450 JUMP JUMPDEST PUSH1 0x40 MLOAD PUSH2 0x187 SWAP2 SWAP1 PUSH2 0x8A0 JUMP JUMPDEST PUSH1 0x40 MLOAD DUP1 SWAP2 SUB SWAP1 RETURN JUMPDEST PUSH2 0x1AA PUSH1 0x4 DUP1 CALLDATASIZE SUB DUP2 ADD SWAP1 PUSH2 0x1A5 SWAP2 SWAP1 PUSH2 0xAA2 JUMP JUMPDEST PUSH2 0x470 JUMP JUMPDEST PUSH1 0x40 MLOAD PUSH2 0x1B7 SWAP2 SWAP1 PUSH2 0x716 JUMP JUMPDEST PUSH1 0x40 MLOAD DUP1 SWAP2 SUB SWAP1 RETURN JUMPDEST PUSH1 0x0 DUP4 DUP4 DUP4 PUSH1 0x40 MLOAD PUSH1 0x20 ADD PUSH2 0x1D7 SWAP4 SWAP3 SWAP2 SWAP1 PUSH2 0xBA9 JUMP JUMPDEST PUSH1 0x40 MLOAD PUSH1 0x20 DUP2 DUP4 SUB SUB DUP2 MSTORE SWAP1 PUSH1 0x40 MSTORE DUP1 MLOAD SWAP1 PUSH1 0x20 ADD KECCAK256 SWAP1 POP SWAP4 SWAP3 POP POP POP JUMP JUMPDEST PUSH1 0x0 DUP1 PUSH2 0x204 DUP7 DUP7 DUP7 PUSH2 0x1C0 JUMP JUMPDEST SWAP1 POP PUSH1 0x0 PUSH2 0x211 DUP3 PUSH2 0x470 JUMP JUMPDEST SWAP1 POP PUSH1 0x0 PUSH2 0x21F DUP3 DUP7 PUSH2 0x31F JUMP JUMPDEST SWAP1 POP DUP9 PUSH20 0xFFFFFFFFFFFFFFFFFFFFFFFFFFFFFFFFFFFFFFFF AND DUP2 PUSH20 0xFFFFFFFFFFFFFFFFFFFFFFFFFFFFFFFFFFFFFFFF AND SUB PUSH2 0x2B7 JUMPI PUSH1 0x1 PUSH1 0x0 DUP1 DUP11 PUSH20 0xFFFFFFFFFFFFFFFFFFFFFFFFFFFFFFFFFFFFFFFF AND PUSH20 0xFFFFFFFFFFFFFFFFFFFFFFFFFFFFFFFFFFFFFFFF AND DUP2 MSTORE PUSH1 0x20 ADD SWAP1 DUP2 MSTORE PUSH1 0x20 ADD PUSH1 0x0 KECCAK256 PUSH1 0x0 PUSH2 0x100 EXP DUP2 SLOAD DUP2 PUSH1 0xFF MUL NOT AND SWAP1 DUP4 ISZERO ISZERO MUL OR SWAP1 SSTORE POP PUSH1 0x1 SWAP4 POP POP POP POP PUSH2 0x316 JUMP JUMPDEST PUSH1 0x0 DUP1 PUSH1 0x0 DUP11 PUSH20 0xFFFFFFFFFFFFFFFFFFFFFFFFFFFFFFFFFFFFFFFF AND PUSH20 0xFFFFFFFFFFFFFFFFFFFFFFFFFFFFFFFFFFFFFFFF AND DUP2 MSTORE PUSH1 0x20 ADD SWAP1 DUP2 MSTORE PUSH1 0x20 ADD PUSH1 0x0 KECCAK256 PUSH1 0x0 PUSH2 0x100 EXP DUP2 SLOAD DUP2 PUSH1 0xFF MUL NOT AND SWAP1 DUP4 ISZERO ISZERO MUL OR SWAP1 SSTORE POP PUSH1 0x0 SWAP4 POP POP POP POP JUMPDEST SWAP6 SWAP5 POP POP POP POP POP JUMP JUMPDEST PUSH1 0x0 DUP1 PUSH1 0x0 DUP1 PUSH2 0x32E DUP6 PUSH2 0x38E JUMP JUMPDEST SWAP3 POP SWAP3 POP SWAP3 POP PUSH1 0x1 DUP7 DUP3 DUP6 DUP6 PUSH1 0x40 MLOAD PUSH1 0x0 DUP2 MSTORE PUSH1 0x20 ADD PUSH1 0x40 MSTORE PUSH1 0x40 MLOAD PUSH2 0x357 SWAP5 SWAP4 SWAP3 SWAP2 SWAP1 PUSH2 0xBE2 JUMP JUMPDEST PUSH1 0x20 PUSH1 0x40 MLOAD PUSH1 0x20 DUP2 SUB SWAP1 DUP1 DUP5 SUB SWAP1 DUP6 GAS STATICCALL ISZERO DUP1 ISZERO PUSH2 0x379 JUMPI RETURNDATASIZE PUSH1 0x0 DUP1 RETURNDATACOPY RETURNDATASIZE PUSH1 0x0 REVERT JUMPDEST POP POP POP PUSH1 0x20 PUSH1 0x40 MLOAD SUB MLOAD SWAP4 POP POP POP POP SWAP3 SWAP2 POP POP JUMP JUMPDEST PUSH1 0x0 DUP1 PUSH1 0x0 PUSH1 0x41 DUP5 MLOAD EQ PUSH2 0x3D7 JUMPI PUSH1 0x40 MLOAD PUSH32 0x8C379A000000000000000000000000000000000000000000000000000000000 DUP2 MSTORE PUSH1 0x4 ADD PUSH2 0x3CE SWAP1 PUSH2 0xC84 JUMP JUMPDEST PUSH1 0x40 MLOAD DUP1 SWAP2 SUB SWAP1 REVERT JUMPDEST PUSH1 0x20 DUP5 ADD MLOAD SWAP3 POP PUSH1 0x40 DUP5 ADD MLOAD SWAP2 POP PUSH1 0x60 DUP5 ADD MLOAD PUSH1 0x0 BYTE SWAP1 POP SWAP2 SWAP4 SWAP1 SWAP3 POP JUMP JUMPDEST DUP1 PUSH1 0x0 DUP1 DUP5 PUSH20 0xFFFFFFFFFFFFFFFFFFFFFFFFFFFFFFFFFFFFFFFF AND PUSH20 0xFFFFFFFFFFFFFFFFFFFFFFFFFFFFFFFFFFFFFFFF AND DUP2 MSTORE PUSH1 0x20 ADD SWAP1 DUP2 MSTORE PUSH1 0x20 ADD PUSH1 0x0 KECCAK256 PUSH1 0x0 PUSH2 0x100 EXP DUP2 SLOAD DUP2 PUSH1 0xFF MUL NOT AND SWAP1 DUP4 ISZERO ISZERO MUL OR SWAP1 SSTORE POP POP POP JUMP JUMPDEST PUSH1 0x0 PUSH1 0x20 MSTORE DUP1 PUSH1 0x0 MSTORE PUSH1 0x40 PUSH1 0x0 KECCAK256 PUSH1 0x0 SWAP2 POP SLOAD SWAP1 PUSH2 0x100 EXP SWAP1 DIV PUSH1 0xFF AND DUP2 JUMP JUMPDEST PUSH1 0x0 DUP2 PUSH1 0x40 MLOAD PUSH1 0x20 ADD PUSH2 0x483 SWAP2 SWAP1 PUSH2 0xD11 JUMP JUMPDEST PUSH1 0x40 MLOAD PUSH1 0x20 DUP2 DUP4 SUB SUB DUP2 MSTORE SWAP1 PUSH1 0x40 MSTORE DUP1 MLOAD SWAP1 PUSH1 0x20 ADD KECCAK256 SWAP1 POP SWAP2 SWAP1 POP JUMP JUMPDEST PUSH1 0x0 PUSH1 0x40 MLOAD SWAP1 POP SWAP1 JUMP JUMPDEST PUSH1 0x0 DUP1 REVERT JUMPDEST PUSH1 0x0 DUP1 REVERT JUMPDEST PUSH1 0x0 PUSH20 0xFFFFFFFFFFFFFFFFFFFFFFFFFFFFFFFFFFFFFFFF DUP3 AND SWAP1 POP SWAP2 SWAP1 POP JUMP JUMPDEST PUSH1 0x0 PUSH2 0x4DF DUP3 PUSH2 0x4B4 JUMP JUMPDEST SWAP1 POP SWAP2 SWAP1 POP JUMP JUMPDEST PUSH2 0x4EF DUP2 PUSH2 0x4D4 JUMP JUMPDEST DUP2 EQ PUSH2 0x4FA JUMPI PUSH1 0x0 DUP1 REVERT JUMPDEST POP JUMP JUMPDEST PUSH1 0x0 DUP2 CALLDATALOAD SWAP1 POP PUSH2 0x50C DUP2 PUSH2 0x4E6 JUMP JUMPDEST SWAP3 SWAP2 POP POP JUMP JUMPDEST PUSH1 0x0 DUP1 REVERT JUMPDEST PUSH1 0x0 DUP1 REVERT JUMPDEST PUSH1 0x0 PUSH1 0x1F NOT PUSH1 0x1F DUP4 ADD AND SWAP1 POP SWAP2 SWAP1 POP JUMP JUMPDEST PUSH32 0x4E487B7100000000000000000000000000000000000000000000000000000000 PUSH1 0x0 MSTORE PUSH1 0x41 PUSH1 0x4 MSTORE PUSH1 0x24 PUSH1 0x0 REVERT JUMPDEST PUSH2 0x565 DUP3 PUSH2 0x51C JUMP JUMPDEST DUP2 ADD DUP2 DUP2 LT PUSH8 0xFFFFFFFFFFFFFFFF DUP3 GT OR ISZERO PUSH2 0x584 JUMPI PUSH2 0x583 PUSH2 0x52D JUMP JUMPDEST JUMPDEST DUP1 PUSH1 0x40 MSTORE POP POP POP JUMP JUMPDEST PUSH1 0x0 PUSH2 0x597 PUSH2 0x4A0 JUMP JUMPDEST SWAP1 POP PUSH2 0x5A3 DUP3 DUP3 PUSH2 0x55C JUMP JUMPDEST SWAP2 SWAP1 POP JUMP JUMPDEST PUSH1 0x0 PUSH8 0xFFFFFFFFFFFFFFFF DUP3 GT ISZERO PUSH2 0x5C3 JUMPI PUSH2 0x5C2 PUSH2 0x52D JUMP JUMPDEST JUMPDEST PUSH2 0x5CC DUP3 PUSH2 0x51C JUMP JUMPDEST SWAP1 POP PUSH1 0x20 DUP2 ADD SWAP1 POP SWAP2 SWAP1 POP JUMP JUMPDEST DUP3 DUP2 DUP4 CALLDATACOPY PUSH1 0x0 DUP4 DUP4 ADD MSTORE POP POP POP JUMP JUMPDEST PUSH1 0x0 PUSH2 0x5FB PUSH2 0x5F6 DUP5 PUSH2 0x5A8 JUMP JUMPDEST PUSH2 0x58D JUMP JUMPDEST SWAP1 POP DUP3 DUP2 MSTORE PUSH1 0x20 DUP2 ADD DUP5 DUP5 DUP5 ADD GT ISZERO PUSH2 0x617 JUMPI PUSH2 0x616 PUSH2 0x517 JUMP JUMPDEST JUMPDEST PUSH2 0x622 DUP5 DUP3 DUP6 PUSH2 0x5D9 JUMP JUMPDEST POP SWAP4 SWAP3 POP POP POP JUMP JUMPDEST PUSH1 0x0 DUP3 PUSH1 0x1F DUP4 ADD SLT PUSH2 0x63F JUMPI PUSH2 0x63E PUSH2 0x512 JUMP JUMPDEST JUMPDEST DUP2 CALLDATALOAD PUSH2 0x64F DUP5 DUP3 PUSH1 0x20 DUP7 ADD PUSH2 0x5E8 JUMP JUMPDEST SWAP2 POP POP SWAP3 SWAP2 POP POP JUMP JUMPDEST PUSH1 0x0 DUP2 SWAP1 POP SWAP2 SWAP1 POP JUMP JUMPDEST PUSH2 0x66B DUP2 PUSH2 0x658 JUMP JUMPDEST DUP2 EQ PUSH2 0x676 JUMPI PUSH1 0x0 DUP1 REVERT JUMPDEST POP JUMP JUMPDEST PUSH1 0x0 DUP2 CALLDATALOAD SWAP1 POP PUSH2 0x688 DUP2 PUSH2 0x662 JUMP JUMPDEST SWAP3 SWAP2 POP POP JUMP JUMPDEST PUSH1 0x0 DUP1 PUSH1 0x0 PUSH1 0x60 DUP5 DUP7 SUB SLT ISZERO PUSH2 0x6A7 JUMPI PUSH2 0x6A6 PUSH2 0x4AA JUMP JUMPDEST JUMPDEST PUSH1 0x0 PUSH2 0x6B5 DUP7 DUP3 DUP8 ADD PUSH2 0x4FD JUMP JUMPDEST SWAP4 POP POP PUSH1 0x20 DUP5 ADD CALLDATALOAD PUSH8 0xFFFFFFFFFFFFFFFF DUP2 GT ISZERO PUSH2 0x6D6 JUMPI PUSH2 0x6D5 PUSH2 0x4AF JUMP JUMPDEST JUMPDEST PUSH2 0x6E2 DUP7 DUP3 DUP8 ADD PUSH2 0x62A JUMP JUMPDEST SWAP3 POP POP PUSH1 0x40 PUSH2 0x6F3 DUP7 DUP3 DUP8 ADD PUSH2 0x679 JUMP JUMPDEST SWAP2 POP POP SWAP3 POP SWAP3 POP SWAP3 JUMP JUMPDEST PUSH1 0x0 DUP2 SWAP1 POP SWAP2 SWAP1 POP JUMP JUMPDEST PUSH2 0x710 DUP2 PUSH2 0x6FD JUMP JUMPDEST DUP3 MSTORE POP POP JUMP JUMPDEST PUSH1 0x0 PUSH1 0x20 DUP3 ADD SWAP1 POP PUSH2 0x72B PUSH1 0x0 DUP4 ADD DUP5 PUSH2 0x707 JUMP JUMPDEST SWAP3 SWAP2 POP POP JUMP JUMPDEST PUSH1 0x0 PUSH8 0xFFFFFFFFFFFFFFFF DUP3 GT ISZERO PUSH2 0x74C JUMPI PUSH2 0x74B PUSH2 0x52D JUMP JUMPDEST JUMPDEST PUSH2 0x755 DUP3 PUSH2 0x51C JUMP JUMPDEST SWAP1 POP PUSH1 0x20 DUP2 ADD SWAP1 POP SWAP2 SWAP1 POP JUMP JUMPDEST PUSH1 0x0 PUSH2 0x775 PUSH2 0x770 DUP5 PUSH2 0x731 JUMP JUMPDEST PUSH2 0x58D JUMP JUMPDEST SWAP1 POP DUP3 DUP2 MSTORE PUSH1 0x20 DUP2 ADD DUP5 DUP5 DUP5 ADD GT ISZERO PUSH2 0x791 JUMPI PUSH2 0x790 PUSH2 0x517 JUMP JUMPDEST JUMPDEST PUSH2 0x79C DUP5 DUP3 DUP6 PUSH2 0x5D9 JUMP JUMPDEST POP SWAP4 SWAP3 POP POP POP JUMP JUMPDEST PUSH1 0x0 DUP3 PUSH1 0x1F DUP4 ADD SLT PUSH2 0x7B9 JUMPI PUSH2 0x7B8 PUSH2 0x512 JUMP JUMPDEST JUMPDEST DUP2 CALLDATALOAD PUSH2 0x7C9 DUP5 DUP3 PUSH1 0x20 DUP7 ADD PUSH2 0x762 JUMP JUMPDEST SWAP2 POP POP SWAP3 SWAP2 POP POP JUMP JUMPDEST PUSH1 0x0 DUP1 PUSH1 0x0 DUP1 PUSH1 0x0 PUSH1 0xA0 DUP7 DUP9 SUB SLT ISZERO PUSH2 0x7EE JUMPI PUSH2 0x7ED PUSH2 0x4AA JUMP JUMPDEST JUMPDEST PUSH1 0x0 PUSH2 0x7FC DUP9 DUP3 DUP10 ADD PUSH2 0x4FD JUMP JUMPDEST SWAP6 POP POP PUSH1 0x20 PUSH2 0x80D DUP9 DUP3 DUP10 ADD PUSH2 0x4FD JUMP JUMPDEST SWAP5 POP POP PUSH1 0x40 DUP7 ADD CALLDATALOAD PUSH8 0xFFFFFFFFFFFFFFFF DUP2 GT ISZERO PUSH2 0x82E JUMPI PUSH2 0x82D PUSH2 0x4AF JUMP JUMPDEST JUMPDEST PUSH2 0x83A DUP9 DUP3 DUP10 ADD PUSH2 0x62A JUMP JUMPDEST SWAP4 POP POP PUSH1 0x60 PUSH2 0x84B DUP9 DUP3 DUP10 ADD PUSH2 0x679 JUMP JUMPDEST SWAP3 POP POP PUSH1 0x80 DUP7 ADD CALLDATALOAD PUSH8 0xFFFFFFFFFFFFFFFF DUP2 GT ISZERO PUSH2 0x86C JUMPI PUSH2 0x86B PUSH2 0x4AF JUMP JUMPDEST JUMPDEST PUSH2 0x878 DUP9 DUP3 DUP10 ADD PUSH2 0x7A4 JUMP JUMPDEST SWAP2 POP POP SWAP3 SWAP6 POP SWAP3 SWAP6 SWAP1 SWAP4 POP JUMP JUMPDEST PUSH1 0x0 DUP2 ISZERO ISZERO SWAP1 POP SWAP2 SWAP1 POP JUMP JUMPDEST PUSH2 0x89A DUP2 PUSH2 0x885 JUMP JUMPDEST DUP3 MSTORE POP POP JUMP JUMPDEST PUSH1 0x0 PUSH1 0x20 DUP3 ADD SWAP1 POP PUSH2 0x8B5 PUSH1 0x0 DUP4 ADD DUP5 PUSH2 0x891 JUMP JUMPDEST SWAP3 SWAP2 POP POP JUMP JUMPDEST PUSH2 0x8C4 DUP2 PUSH2 0x6FD JUMP JUMPDEST DUP2 EQ PUSH2 0x8CF JUMPI PUSH1 0x0 DUP1 REVERT JUMPDEST POP JUMP JUMPDEST PUSH1 0x0 DUP2 CALLDATALOAD SWAP1 POP PUSH2 0x8E1 DUP2 PUSH2 0x8BB JUMP JUMPDEST SWAP3 SWAP2 POP POP JUMP JUMPDEST PUSH1 0x0 DUP1 PUSH1 0x40 DUP4 DUP6 SUB SLT ISZERO PUSH2 0x8FE JUMPI PUSH2 0x8FD PUSH2 0x4AA JUMP JUMPDEST JUMPDEST PUSH1 0x0 PUSH2 0x90C DUP6 DUP3 DUP7 ADD PUSH2 0x8D2 JUMP JUMPDEST SWAP3 POP POP PUSH1 0x20 DUP4 ADD CALLDATALOAD PUSH8 0xFFFFFFFFFFFFFFFF DUP2 GT ISZERO PUSH2 0x92D JUMPI PUSH2 0x92C PUSH2 0x4AF JUMP JUMPDEST JUMPDEST PUSH2 0x939 DUP6 DUP3 DUP7 ADD PUSH2 0x7A4 JUMP JUMPDEST SWAP2 POP POP SWAP3 POP SWAP3 SWAP1 POP JUMP JUMPDEST PUSH2 0x94C DUP2 PUSH2 0x4D4 JUMP JUMPDEST DUP3 MSTORE POP POP JUMP JUMPDEST PUSH1 0x0 PUSH1 0x20 DUP3 ADD SWAP1 POP PUSH2 0x967 PUSH1 0x0 DUP4 ADD DUP5 PUSH2 0x943 JUMP JUMPDEST SWAP3 SWAP2 POP POP JUMP JUMPDEST PUSH1 0x0 PUSH1 0x20 DUP3 DUP5 SUB SLT ISZERO PUSH2 0x983 JUMPI PUSH2 0x982 PUSH2 0x4AA JUMP JUMPDEST JUMPDEST PUSH1 0x0 DUP3 ADD CALLDATALOAD PUSH8 0xFFFFFFFFFFFFFFFF DUP2 GT ISZERO PUSH2 0x9A1 JUMPI PUSH2 0x9A0 PUSH2 0x4AF JUMP JUMPDEST JUMPDEST PUSH2 0x9AD DUP5 DUP3 DUP6 ADD PUSH2 0x7A4 JUMP JUMPDEST SWAP2 POP POP SWAP3 SWAP2 POP POP JUMP JUMPDEST PUSH1 0x0 PUSH1 0xFF DUP3 AND SWAP1 POP SWAP2 SWAP1 POP JUMP JUMPDEST PUSH2 0x9CC DUP2 PUSH2 0x9B6 JUMP JUMPDEST DUP3 MSTORE POP POP JUMP JUMPDEST PUSH1 0x0 PUSH1 0x60 DUP3 ADD SWAP1 POP PUSH2 0x9E7 PUSH1 0x0 DUP4 ADD DUP7 PUSH2 0x707 JUMP JUMPDEST PUSH2 0x9F4 PUSH1 0x20 DUP4 ADD DUP6 PUSH2 0x707 JUMP JUMPDEST PUSH2 0xA01 PUSH1 0x40 DUP4 ADD DUP5 PUSH2 0x9C3 JUMP JUMPDEST SWAP5 SWAP4 POP POP POP POP JUMP JUMPDEST PUSH2 0xA12 DUP2 PUSH2 0x885 JUMP JUMPDEST DUP2 EQ PUSH2 0xA1D JUMPI PUSH1 0x0 DUP1 REVERT JUMPDEST POP JUMP JUMPDEST PUSH1 0x0 DUP2 CALLDATALOAD SWAP1 POP PUSH2 0xA2F DUP2 PUSH2 0xA09 JUMP JUMPDEST SWAP3 SWAP2 POP POP JUMP JUMPDEST PUSH1 0x0 DUP1 PUSH1 0x40 DUP4 DUP6 SUB SLT ISZERO PUSH2 0xA4C JUMPI PUSH2 0xA4B PUSH2 0x4AA JUMP JUMPDEST JUMPDEST PUSH1 0x0 PUSH2 0xA5A DUP6 DUP3 DUP7 ADD PUSH2 0x4FD JUMP JUMPDEST SWAP3 POP POP PUSH1 0x20 PUSH2 0xA6B DUP6 DUP3 DUP7 ADD PUSH2 0xA20 JUMP JUMPDEST SWAP2 POP POP SWAP3 POP SWAP3 SWAP1 POP JUMP JUMPDEST PUSH1 0x0 PUSH1 0x20 DUP3 DUP5 SUB SLT ISZERO PUSH2 0xA8B JUMPI PUSH2 0xA8A PUSH2 0x4AA JUMP JUMPDEST JUMPDEST PUSH1 0x0 PUSH2 0xA99 DUP5 DUP3 DUP6 ADD PUSH2 0x4FD JUMP JUMPDEST SWAP2 POP POP SWAP3 SWAP2 POP POP JUMP JUMPDEST PUSH1 0x0 PUSH1 0x20 DUP3 DUP5 SUB SLT ISZERO PUSH2 0xAB8 JUMPI PUSH2 0xAB7 PUSH2 0x4AA JUMP JUMPDEST JUMPDEST PUSH1 0x0 PUSH2 0xAC6 DUP5 DUP3 DUP6 ADD PUSH2 0x8D2 JUMP JUMPDEST SWAP2 POP POP SWAP3 SWAP2 POP POP JUMP JUMPDEST PUSH1 0x0 DUP2 PUSH1 0x60 SHL SWAP1 POP SWAP2 SWAP1 POP JUMP JUMPDEST PUSH1 0x0 PUSH2 0xAE7 DUP3 PUSH2 0xACF JUMP JUMPDEST SWAP1 POP SWAP2 SWAP1 POP JUMP JUMPDEST PUSH1 0x0 PUSH2 0xAF9 DUP3 PUSH2 0xADC JUMP JUMPDEST SWAP1 POP SWAP2 SWAP1 POP JUMP JUMPDEST PUSH2 0xB11 PUSH2 0xB0C DUP3 PUSH2 0x4D4 JUMP JUMPDEST PUSH2 0xAEE JUMP JUMPDEST DUP3 MSTORE POP POP JUMP JUMPDEST PUSH1 0x0 DUP2 MLOAD SWAP1 POP SWAP2 SWAP1 POP JUMP JUMPDEST PUSH1 0x0 DUP2 SWAP1 POP SWAP3 SWAP2 POP POP JUMP JUMPDEST PUSH1 0x0 JUMPDEST DUP4 DUP2 LT ISZERO PUSH2 0xB4B JUMPI DUP1 DUP3 ADD MLOAD DUP2 DUP5 ADD MSTORE PUSH1 0x20 DUP2 ADD SWAP1 POP PUSH2 0xB30 JUMP JUMPDEST PUSH1 0x0 DUP5 DUP5 ADD MSTORE POP POP POP POP JUMP JUMPDEST PUSH1 0x0 PUSH2 0xB62 DUP3 PUSH2 0xB17 JUMP JUMPDEST PUSH2 0xB6C DUP2 DUP6 PUSH2 0xB22 JUMP JUMPDEST SWAP4 POP PUSH2 0xB7C DUP2 DUP6 PUSH1 0x20 DUP7 ADD PUSH2 0xB2D JUMP JUMPDEST DUP1 DUP5 ADD SWAP2 POP POP SWAP3 SWAP2 POP POP JUMP JUMPDEST PUSH1 0x0 DUP2 SWAP1 POP SWAP2 SWAP1 POP JUMP JUMPDEST PUSH2 0xBA3 PUSH2 0xB9E DUP3 PUSH2 0x658 JUMP JUMPDEST PUSH2 0xB88 JUMP JUMPDEST DUP3 MSTORE POP POP JUMP JUMPDEST PUSH1 0x0 PUSH2 0xBB5 DUP3 DUP7 PUSH2 0xB00 JUMP JUMPDEST PUSH1 0x14 DUP3 ADD SWAP2 POP PUSH2 0xBC5 DUP3 DUP6 PUSH2 0xB57 JUMP JUMPDEST SWAP2 POP PUSH2 0xBD1 DUP3 DUP5 PUSH2 0xB92 JUMP JUMPDEST PUSH1 0x20 DUP3 ADD SWAP2 POP DUP2 SWAP1 POP SWAP5 SWAP4 POP POP POP POP JUMP JUMPDEST PUSH1 0x0 PUSH1 0x80 DUP3 ADD SWAP1 POP PUSH2 0xBF7 PUSH1 0x0 DUP4 ADD DUP8 PUSH2 0x707 JUMP JUMPDEST PUSH2 0xC04 PUSH1 0x20 DUP4 ADD DUP7 PUSH2 0x9C3 JUMP JUMPDEST PUSH2 0xC11 PUSH1 0x40 DUP4 ADD DUP6 PUSH2 0x707 JUMP JUMPDEST PUSH2 0xC1E PUSH1 0x60 DUP4 ADD DUP5 PUSH2 0x707 JUMP JUMPDEST SWAP6 SWAP5 POP POP POP POP POP JUMP JUMPDEST PUSH1 0x0 DUP3 DUP3 MSTORE PUSH1 0x20 DUP3 ADD SWAP1 POP SWAP3 SWAP2 POP POP JUMP JUMPDEST PUSH32 0x696E76616C6964207369676E6174757265206C656E6774680000000000000000 PUSH1 0x0 DUP3 ADD MSTORE POP JUMP JUMPDEST PUSH1 0x0 PUSH2 0xC6E PUSH1 0x18 DUP4 PUSH2 0xC27 JUMP JUMPDEST SWAP2 POP PUSH2 0xC79 DUP3 PUSH2 0xC38 JUMP JUMPDEST PUSH1 0x20 DUP3 ADD SWAP1 POP SWAP2 SWAP1 POP JUMP JUMPDEST PUSH1 0x0 PUSH1 0x20 DUP3 ADD SWAP1 POP DUP2 DUP2 SUB PUSH1 0x0 DUP4 ADD MSTORE PUSH2 0xC9D DUP2 PUSH2 0xC61 JUMP JUMPDEST SWAP1 POP SWAP2 SWAP1 POP JUMP JUMPDEST PUSH32 0x19457468657265756D205369676E6564204D6573736167653A0A333200000000 PUSH1 0x0 DUP3 ADD MSTORE POP JUMP JUMPDEST PUSH1 0x0 PUSH2 0xCDA PUSH1 0x1C DUP4 PUSH2 0xB22 JUMP JUMPDEST SWAP2 POP PUSH2 0xCE5 DUP3 PUSH2 0xCA4 JUMP JUMPDEST PUSH1 0x1C DUP3 ADD SWAP1 POP SWAP2 SWAP1 POP JUMP JUMPDEST PUSH1 0x0 DUP2 SWAP1 POP SWAP2 SWAP1 POP JUMP JUMPDEST PUSH2 0xD0B PUSH2 0xD06 DUP3 PUSH2 0x6FD JUMP JUMPDEST PUSH2 0xCF0 JUMP JUMPDEST DUP3 MSTORE POP POP JUMP JUMPDEST PUSH1 0x0 PUSH2 0xD1C DUP3 PUSH2 0xCCD JUMP JUMPDEST SWAP2 POP PUSH2 0xD28 DUP3 DUP5 PUSH2 0xCFA JUMP JUMPDEST PUSH1 0x20 DUP3 ADD SWAP2 POP DUP2 SWAP1 POP SWAP3 SWAP2 POP POP JUMP INVALID LOG2 PUSH5 0x6970667358 0x22 SLT KECCAK256 BLOCKHASH 0xC9 GASPRICE 0xBF 0xD0 SDIV 0xCE PUSH19 0xC6076FDDAD2F2960DE39D6404102D93832DDBC STATICCALL GASPRICE EXP DUP13 STATICCALL PUSH5 0x736F6C6343 STOP ADDMOD SLT STOP CALLER "},"methodIdentifiers":{"getEthSignedMessageHash(bytes32)":"fa540801","getMessageHash(address,string,uint256)":"082d8f29","recoverSigner(bytes32,bytes)":"97aba7f9","setVerifiedUsers(address,bool)":"d8bd4e3f","splitSignature(bytes)":"a7bb5803","verifiedUsers(address)":"e35fe366","verify(address,address,string,uint256,bytes)":"1e31549e"}}}}}