{
  "abi": [
    {
      "anonymous": false,
      "inputs": [
        {
          "indexed": true,
          "internalType": "address",
          "name": "_user",
          "type": "address"
        },
        {
          "indexed": true,
          "internalType": "bool",
          "name": "_status",
          "type": "bool"
        }
      ],
      "name": "VerifyUser",
      "type": "event"
    },
    {
      "inputs": [
        {
          "internalType": "bytes32",
          "name": "_messageHash",
          "type": "bytes32"
        }
      ],
      "name": "getEthSignedMessageHash",
      "outputs": [
        {
          "internalType": "bytes32",
          "name": "",
          "type": "bytes32"
        }
      ],
      "stateMutability": "pure",
      "type": "function"
    },
    {
      "inputs": [
        {
          "internalType": "address",
          "name": "_to",
          "type": "address"
        },
        {
          "internalType": "string",
          "name": "_message",
          "type": "string"
        },
        {
          "internalType": "uint256",
          "name": "_nonce",
          "type": "uint256"
        }
      ],
      "name": "getMessageHash",
      "outputs": [
        {
          "internalType": "bytes32",
          "name": "",
          "type": "bytes32"
        }
      ],
      "stateMutability": "pure",
      "type": "function"
    },
    {
      "inputs": [
        {
          "internalType": "bytes32",
          "name": "_ethSignedMessageHash",
          "type": "bytes32"
        },
        {
          "internalType": "bytes",
          "name": "_signature",
          "type": "bytes"
        }
      ],
      "name": "recoverSigner",
      "outputs": [
        {
          "internalType": "address",
          "name": "",
          "type": "address"
        }
      ],
      "stateMutability": "pure",
      "type": "function"
    },
    {
      "inputs": [
        {
          "internalType": "bytes",
          "name": "sig",
          "type": "bytes"
        }
      ],
      "name": "splitSignature",
      "outputs": [
        {
          "internalType": "bytes32",
          "name": "r",
          "type": "bytes32"
        },
        {
          "internalType": "bytes32",
          "name": "s",
          "type": "bytes32"
        },
        {
          "internalType": "uint8",
          "name": "v",
          "type": "uint8"
        }
      ],
      "stateMutability": "pure",
      "type": "function"
    },
    {
      "inputs": [
        {
          "internalType": "address",
          "name": "",
          "type": "address"
        }
      ],
      "name": "verifiedUsers",
      "outputs": [
        {
          "internalType": "bool",
          "name": "",
          "type": "bool"
        }
      ],
      "stateMutability": "view",
      "type": "function"
    },
    {
      "inputs": [
        {
          "internalType": "address",
          "name": "_signer",
          "type": "address"
        },
        {
          "internalType": "address",
          "name": "_to",
          "type": "address"
        },
        {
          "internalType": "string",
          "name": "_message",
          "type": "string"
        },
        {
          "internalType": "uint256",
          "name": "_nonce",
          "type": "uint256"
        },
        {
          "internalType": "bytes",
          "name": "signature",
          "type": "bytes"
        }
      ],
      "name": "verify",
      "outputs": [
        {
          "internalType": "bool",
          "name": "",
          "type": "bool"
        }
      ],
      "stateMutability": "nonpayable",
      "type": "function"
    }
  ],
  "bytecode": {
    "object": "0x608060405234801561001057600080fd5b5061064d806100206000396000f3fe608060405234801561001057600080fd5b50600436106100625760003560e01c8063082d8f29146100675780631e31549e1461008d57806397aba7f9146100b0578063a7bb5803146100db578063e35fe3661461010c578063fa5408011461012f575b600080fd5b61007a610075366004610423565b610142565b6040519081526020015b60405180910390f35b6100a061009b36600461047a565b610178565b6040519015158152602001610084565b6100c36100be366004610509565b61021a565b6040516001600160a01b039091168152602001610084565b6100ee6100e9366004610550565b610299565b60408051938452602084019290925260ff1690820152606001610084565b6100a061011a36600461058d565b60006020819052908152604090205460ff1681565b61007a61013d3660046105af565b610311565b6000838383604051602001610159939291906105c8565b6040516020818303038152906040528051906020012090509392505050565b600080610186868686610142565b9050600061019382610311565b905060006101a1828661021a565b9050886001600160a01b0316816001600160a01b0316036101ec575050506001600160a01b0385166000908152602081905260409020805460ff191660019081179091559050610211565b505050506001600160a01b0384166000908152602081905260408120805460ff191690555b95945050505050565b60008060008061022985610299565b6040805160008152602081018083528b905260ff8316918101919091526060810184905260808101839052929550909350915060019060a0016020604051602081039080840390855afa158015610284573d6000803e3d6000fd5b5050604051601f190151979650505050505050565b600080600083516041146102f35760405162461bcd60e51b815260206004820152601860248201527f696e76616c6964207369676e6174757265206c656e6774680000000000000000604482015260640160405180910390fd5b50505060208101516040820151606090920151909260009190911a90565b6040517f19457468657265756d205369676e6564204d6573736167653a0a3332000000006020820152603c8101829052600090605c01604051602081830303815290604052805190602001209050919050565b80356001600160a01b038116811461037b57600080fd5b919050565b634e487b7160e01b600052604160045260246000fd5b600082601f8301126103a757600080fd5b813567ffffffffffffffff808211156103c2576103c2610380565b604051601f8301601f19908116603f011681019082821181831017156103ea576103ea610380565b8160405283815286602085880101111561040357600080fd5b836020870160208301376000602085830101528094505050505092915050565b60008060006060848603121561043857600080fd5b61044184610364565b9250602084013567ffffffffffffffff81111561045d57600080fd5b61046986828701610396565b925050604084013590509250925092565b600080600080600060a0868803121561049257600080fd5b61049b86610364565b94506104a960208701610364565b9350604086013567ffffffffffffffff808211156104c657600080fd5b6104d289838a01610396565b94506060880135935060808801359150808211156104ef57600080fd5b506104fc88828901610396565b9150509295509295909350565b6000806040838503121561051c57600080fd5b82359150602083013567ffffffffffffffff81111561053a57600080fd5b61054685828601610396565b9150509250929050565b60006020828403121561056257600080fd5b813567ffffffffffffffff81111561057957600080fd5b61058584828501610396565b949350505050565b60006020828403121561059f57600080fd5b6105a882610364565b9392505050565b6000602082840312156105c157600080fd5b5035919050565b6bffffffffffffffffffffffff198460601b1681526000835160005b8181101561060157602081870181015160148684010152016105e4565b506014920191820192909252603401939250505056fea2646970667358221220ca3d496264df36bd956eff524cf474e6d851f8aba49d00864a8867ca5e2fd5d264736f6c63430008120033",
    "linkReferences": {}
  },
  "methodIdentifiers": {
    "getEthSignedMessageHash(bytes32)": "fa540801",
    "getMessageHash(address,string,uint256)": "082d8f29",
    "recoverSigner(bytes32,bytes)": "97aba7f9",
    "splitSignature(bytes)": "a7bb5803",
    "verifiedUsers(address)": "e35fe366",
    "verify(address,address,string,uint256,bytes)": "1e31549e"
  },
  "id": 1
}