{
  "_format": "hh-sol-artifact-1",
  "contractName": "Verification",
  "sourceName": "contracts/Verification.sol",
  "abi": [
    {
      "anonymous": false,
      "inputs": [
        {
          "indexed": true,
          "internalType": "address",
          "name": "_user",
          "type": "address"
        },
        {
          "indexed": true,
          "internalType": "bool",
          "name": "_status",
          "type": "bool"
        }
      ],
      "name": "VerifyUser",
      "type": "event"
    },
    {
      "inputs": [
        {
          "internalType": "bytes32",
          "name": "_messageHash",
          "type": "bytes32"
        }
      ],
      "name": "getEthSignedMessageHash",
      "outputs": [
        {
          "internalType": "bytes32",
          "name": "",
          "type": "bytes32"
        }
      ],
      "stateMutability": "pure",
      "type": "function"
    },
    {
      "inputs": [
        {
          "internalType": "address",
          "name": "_to",
          "type": "address"
        },
        {
          "internalType": "string",
          "name": "_message",
          "type": "string"
        },
        {
          "internalType": "uint256",
          "name": "_nonce",
          "type": "uint256"
        }
      ],
      "name": "getMessageHash",
      "outputs": [
        {
          "internalType": "bytes32",
          "name": "",
          "type": "bytes32"
        }
      ],
      "stateMutability": "pure",
      "type": "function"
    },
    {
      "inputs": [
        {
          "internalType": "bytes32",
          "name": "_ethSignedMessageHash",
          "type": "bytes32"
        },
        {
          "internalType": "bytes",
          "name": "_signature",
          "type": "bytes"
        }
      ],
      "name": "recoverSigner",
      "outputs": [
        {
          "internalType": "address",
          "name": "",
          "type": "address"
        }
      ],
      "stateMutability": "pure",
      "type": "function"
    },
    {
      "inputs": [
        {
          "internalType": "bytes",
          "name": "sig",
          "type": "bytes"
        }
      ],
      "name": "splitSignature",
      "outputs": [
        {
          "internalType": "bytes32",
          "name": "r",
          "type": "bytes32"
        },
        {
          "internalType": "bytes32",
          "name": "s",
          "type": "bytes32"
        },
        {
          "internalType": "uint8",
          "name": "v",
          "type": "uint8"
        }
      ],
      "stateMutability": "pure",
      "type": "function"
    },
    {
      "inputs": [
        {
          "internalType": "address",
          "name": "",
          "type": "address"
        }
      ],
      "name": "verifiedUsers",
      "outputs": [
        {
          "internalType": "bool",
          "name": "",
          "type": "bool"
        }
      ],
      "stateMutability": "view",
      "type": "function"
    },
    {
      "inputs": [
        {
          "internalType": "address",
          "name": "_signer",
          "type": "address"
        },
        {
          "internalType": "address",
          "name": "_to",
          "type": "address"
        },
        {
          "internalType": "string",
          "name": "_message",
          "type": "string"
        },
        {
          "internalType": "uint256",
          "name": "_nonce",
          "type": "uint256"
        },
        {
          "internalType": "bytes",
          "name": "signature",
          "type": "bytes"
        }
      ],
      "name": "verify",
      "outputs": [
        {
          "internalType": "bool",
          "name": "",
          "type": "bool"
        }
      ],
      "stateMutability": "nonpayable",
      "type": "function"
    }
  ],
  "bytecode": "0x608060405234801561001057600080fd5b50610c70806100206000396000f3fe608060405234801561001057600080fd5b50600436106100625760003560e01c8063082d8f29146100675780631e31549e1461009757806397aba7f9146100c7578063a7bb5803146100f7578063e35fe36614610129578063fa54080114610159575b600080fd5b610081600480360381019061007c91906105fd565b610189565b60405161008e9190610685565b60405180910390f35b6100b160048036038101906100ac9190610741565b6101bf565b6040516100be919061080f565b60405180910390f35b6100e160048036038101906100dc9190610856565b6102e8565b6040516100ee91906108c1565b60405180910390f35b610111600480360381019061010c91906108dc565b610357565b60405161012093929190610941565b60405180910390f35b610143600480360381019061013e9190610978565b6103bf565b604051610150919061080f565b60405180910390f35b610173600480360381019061016e91906109a5565b6103df565b6040516101809190610685565b60405180910390f35b60008383836040516020016101a093929190610aac565b6040516020818303038152906040528051906020012090509392505050565b6000806101cd868686610189565b905060006101da826103df565b905060006101e882866102e8565b90508873ffffffffffffffffffffffffffffffffffffffff168173ffffffffffffffffffffffffffffffffffffffff16036102805760016000808a73ffffffffffffffffffffffffffffffffffffffff1673ffffffffffffffffffffffffffffffffffffffff16815260200190815260200160002060006101000a81548160ff021916908315150217905550600193505050506102df565b60008060008a73ffffffffffffffffffffffffffffffffffffffff1673ffffffffffffffffffffffffffffffffffffffff16815260200190815260200160002060006101000a81548160ff021916908315150217905550600093505050505b95945050505050565b6000806000806102f785610357565b925092509250600186828585604051600081526020016040526040516103209493929190610ae5565b6020604051602081039080840390855afa158015610342573d6000803e3d6000fd5b50505060206040510351935050505092915050565b600080600060418451146103a0576040517f08c379a000000000000000000000000000000000000000000000000000000000815260040161039790610b87565b60405180910390fd5b6020840151925060408401519150606084015160001a90509193909250565b60006020528060005260406000206000915054906101000a900460ff1681565b6000816040516020016103f29190610c14565b604051602081830303815290604052805190602001209050919050565b6000604051905090565b600080fd5b600080fd5b600073ffffffffffffffffffffffffffffffffffffffff82169050919050565b600061044e82610423565b9050919050565b61045e81610443565b811461046957600080fd5b50565b60008135905061047b81610455565b92915050565b600080fd5b600080fd5b6000601f19601f8301169050919050565b7f4e487b7100000000000000000000000000000000000000000000000000000000600052604160045260246000fd5b6104d48261048b565b810181811067ffffffffffffffff821117156104f3576104f261049c565b5b80604052505050565b600061050661040f565b905061051282826104cb565b919050565b600067ffffffffffffffff8211156105325761053161049c565b5b61053b8261048b565b9050602081019050919050565b82818337600083830152505050565b600061056a61056584610517565b6104fc565b90508281526020810184848401111561058657610585610486565b5b610591848285610548565b509392505050565b600082601f8301126105ae576105ad610481565b5b81356105be848260208601610557565b91505092915050565b6000819050919050565b6105da816105c7565b81146105e557600080fd5b50565b6000813590506105f7816105d1565b92915050565b60008060006060848603121561061657610615610419565b5b60006106248682870161046c565b935050602084013567ffffffffffffffff8111156106455761064461041e565b5b61065186828701610599565b9250506040610662868287016105e8565b9150509250925092565b6000819050919050565b61067f8161066c565b82525050565b600060208201905061069a6000830184610676565b92915050565b600067ffffffffffffffff8211156106bb576106ba61049c565b5b6106c48261048b565b9050602081019050919050565b60006106e46106df846106a0565b6104fc565b905082815260208101848484011115610700576106ff610486565b5b61070b848285610548565b509392505050565b600082601f83011261072857610727610481565b5b81356107388482602086016106d1565b91505092915050565b600080600080600060a0868803121561075d5761075c610419565b5b600061076b8882890161046c565b955050602061077c8882890161046c565b945050604086013567ffffffffffffffff81111561079d5761079c61041e565b5b6107a988828901610599565b93505060606107ba888289016105e8565b925050608086013567ffffffffffffffff8111156107db576107da61041e565b5b6107e788828901610713565b9150509295509295909350565b60008115159050919050565b610809816107f4565b82525050565b60006020820190506108246000830184610800565b92915050565b6108338161066c565b811461083e57600080fd5b50565b6000813590506108508161082a565b92915050565b6000806040838503121561086d5761086c610419565b5b600061087b85828601610841565b925050602083013567ffffffffffffffff81111561089c5761089b61041e565b5b6108a885828601610713565b9150509250929050565b6108bb81610443565b82525050565b60006020820190506108d660008301846108b2565b92915050565b6000602082840312156108f2576108f1610419565b5b600082013567ffffffffffffffff8111156109105761090f61041e565b5b61091c84828501610713565b91505092915050565b600060ff82169050919050565b61093b81610925565b82525050565b60006060820190506109566000830186610676565b6109636020830185610676565b6109706040830184610932565b949350505050565b60006020828403121561098e5761098d610419565b5b600061099c8482850161046c565b91505092915050565b6000602082840312156109bb576109ba610419565b5b60006109c984828501610841565b91505092915050565b60008160601b9050919050565b60006109ea826109d2565b9050919050565b60006109fc826109df565b9050919050565b610a14610a0f82610443565b6109f1565b82525050565b600081519050919050565b600081905092915050565b60005b83811015610a4e578082015181840152602081019050610a33565b60008484015250505050565b6000610a6582610a1a565b610a6f8185610a25565b9350610a7f818560208601610a30565b80840191505092915050565b6000819050919050565b610aa6610aa1826105c7565b610a8b565b82525050565b6000610ab88286610a03565b601482019150610ac88285610a5a565b9150610ad48284610a95565b602082019150819050949350505050565b6000608082019050610afa6000830187610676565b610b076020830186610932565b610b146040830185610676565b610b216060830184610676565b95945050505050565b600082825260208201905092915050565b7f696e76616c6964207369676e6174757265206c656e6774680000000000000000600082015250565b6000610b71601883610b2a565b9150610b7c82610b3b565b602082019050919050565b60006020820190508181036000830152610ba081610b64565b9050919050565b7f19457468657265756d205369676e6564204d6573736167653a0a333200000000600082015250565b6000610bdd601c83610a25565b9150610be882610ba7565b601c82019050919050565b6000819050919050565b610c0e610c098261066c565b610bf3565b82525050565b6000610c1f82610bd0565b9150610c2b8284610bfd565b6020820191508190509291505056fea264697066735822122024a60e3b906555b7fcc46ea2df7b0dbc2e17e8d460ac8979d16d4927ab0538e764736f6c63430008120033",
  "linkReferences": {},
  "deployedLinkReferences": {}
}