{
  "_format": "hh-sol-artifact-1",
  "contractName": "Verification",
  "sourceName": "contracts/Verification.sol",
  "abi": [
    {
      "anonymous": false,
      "inputs": [
        {
          "indexed": true,
          "internalType": "address",
          "name": "_user",
          "type": "address"
        },
        {
          "indexed": true,
          "internalType": "bool",
          "name": "_status",
          "type": "bool"
        }
      ],
      "name": "VerifyUser",
      "type": "event"
    },
    {
      "inputs": [
        {
          "internalType": "bytes32",
          "name": "_messageHash",
          "type": "bytes32"
        }
      ],
      "name": "getEthSignedMessageHash",
      "outputs": [
        {
          "internalType": "bytes32",
          "name": "",
          "type": "bytes32"
        }
      ],
      "stateMutability": "pure",
      "type": "function"
    },
    {
      "inputs": [
        {
          "internalType": "address",
          "name": "_to",
          "type": "address"
        },
        {
          "internalType": "string",
          "name": "_message",
          "type": "string"
        },
        {
          "internalType": "uint256",
          "name": "_nonce",
          "type": "uint256"
        }
      ],
      "name": "getMessageHash",
      "outputs": [
        {
          "internalType": "bytes32",
          "name": "",
          "type": "bytes32"
        }
      ],
      "stateMutability": "pure",
      "type": "function"
    },
    {
      "inputs": [
        {
          "internalType": "bytes32",
          "name": "_ethSignedMessageHash",
          "type": "bytes32"
        },
        {
          "internalType": "bytes",
          "name": "_signature",
          "type": "bytes"
        }
      ],
      "name": "recoverSigner",
      "outputs": [
        {
          "internalType": "address",
          "name": "",
          "type": "address"
        }
      ],
      "stateMutability": "pure",
      "type": "function"
    },
    {
      "inputs": [
        {
          "internalType": "address",
          "name": "_to",
          "type": "address"
        },
        {
          "internalType": "bool",
          "name": "_value",
          "type": "bool"
        }
      ],
      "name": "setVerifiedUsers",
      "outputs": [],
      "stateMutability": "nonpayable",
      "type": "function"
    },
    {
      "inputs": [
        {
          "internalType": "bytes",
          "name": "sig",
          "type": "bytes"
        }
      ],
      "name": "splitSignature",
      "outputs": [
        {
          "internalType": "bytes32",
          "name": "r",
          "type": "bytes32"
        },
        {
          "internalType": "bytes32",
          "name": "s",
          "type": "bytes32"
        },
        {
          "internalType": "uint8",
          "name": "v",
          "type": "uint8"
        }
      ],
      "stateMutability": "pure",
      "type": "function"
    },
    {
      "inputs": [
        {
          "internalType": "address",
          "name": "",
          "type": "address"
        }
      ],
      "name": "verifiedUsers",
      "outputs": [
        {
          "internalType": "bool",
          "name": "",
          "type": "bool"
        }
      ],
      "stateMutability": "view",
      "type": "function"
    },
    {
      "inputs": [
        {
          "internalType": "address",
          "name": "_signer",
          "type": "address"
        },
        {
          "internalType": "address",
          "name": "_to",
          "type": "address"
        },
        {
          "internalType": "string",
          "name": "_message",
          "type": "string"
        },
        {
          "internalType": "uint256",
          "name": "_nonce",
          "type": "uint256"
        },
        {
          "internalType": "bytes",
          "name": "signature",
          "type": "bytes"
        }
      ],
      "name": "verify",
      "outputs": [
        {
          "internalType": "bool",
          "name": "",
          "type": "bool"
        }
      ],
      "stateMutability": "nonpayable",
      "type": "function"
    }
  ],
  "bytecode": "0x608060405234801561001057600080fd5b50610d6d806100206000396000f3fe608060405234801561001057600080fd5b506004361061007d5760003560e01c8063a7bb58031161005b578063a7bb580314610112578063d8bd4e3f14610144578063e35fe36614610160578063fa540801146101905761007d565b8063082d8f29146100825780631e31549e146100b257806397aba7f9146100e2575b600080fd5b61009c6004803603810190610097919061068e565b6101c0565b6040516100a99190610716565b60405180910390f35b6100cc60048036038101906100c791906107d2565b6101f6565b6040516100d991906108a0565b60405180910390f35b6100fc60048036038101906100f791906108e7565b61031f565b6040516101099190610952565b60405180910390f35b61012c6004803603810190610127919061096d565b61038e565b60405161013b939291906109d2565b60405180910390f35b61015e60048036038101906101599190610a35565b6103f6565b005b61017a60048036038101906101759190610a75565b610450565b60405161018791906108a0565b60405180910390f35b6101aa60048036038101906101a59190610aa2565b610470565b6040516101b79190610716565b60405180910390f35b60008383836040516020016101d793929190610ba9565b6040516020818303038152906040528051906020012090509392505050565b6000806102048686866101c0565b9050600061021182610470565b9050600061021f828661031f565b90508873ffffffffffffffffffffffffffffffffffffffff168173ffffffffffffffffffffffffffffffffffffffff16036102b75760016000808a73ffffffffffffffffffffffffffffffffffffffff1673ffffffffffffffffffffffffffffffffffffffff16815260200190815260200160002060006101000a81548160ff02191690831515021790555060019350505050610316565b60008060008a73ffffffffffffffffffffffffffffffffffffffff1673ffffffffffffffffffffffffffffffffffffffff16815260200190815260200160002060006101000a81548160ff021916908315150217905550600093505050505b95945050505050565b60008060008061032e8561038e565b925092509250600186828585604051600081526020016040526040516103579493929190610be2565b6020604051602081039080840390855afa158015610379573d6000803e3d6000fd5b50505060206040510351935050505092915050565b600080600060418451146103d7576040517f08c379a00000000000000000000000000000000000000000000000000000000081526004016103ce90610c84565b60405180910390fd5b6020840151925060408401519150606084015160001a90509193909250565b806000808473ffffffffffffffffffffffffffffffffffffffff1673ffffffffffffffffffffffffffffffffffffffff16815260200190815260200160002060006101000a81548160ff0219169083151502179055505050565b60006020528060005260406000206000915054906101000a900460ff1681565b6000816040516020016104839190610d11565b604051602081830303815290604052805190602001209050919050565b6000604051905090565b600080fd5b600080fd5b600073ffffffffffffffffffffffffffffffffffffffff82169050919050565b60006104df826104b4565b9050919050565b6104ef816104d4565b81146104fa57600080fd5b50565b60008135905061050c816104e6565b92915050565b600080fd5b600080fd5b6000601f19601f8301169050919050565b7f4e487b7100000000000000000000000000000000000000000000000000000000600052604160045260246000fd5b6105658261051c565b810181811067ffffffffffffffff821117156105845761058361052d565b5b80604052505050565b60006105976104a0565b90506105a3828261055c565b919050565b600067ffffffffffffffff8211156105c3576105c261052d565b5b6105cc8261051c565b9050602081019050919050565b82818337600083830152505050565b60006105fb6105f6846105a8565b61058d565b90508281526020810184848401111561061757610616610517565b5b6106228482856105d9565b509392505050565b600082601f83011261063f5761063e610512565b5b813561064f8482602086016105e8565b91505092915050565b6000819050919050565b61066b81610658565b811461067657600080fd5b50565b60008135905061068881610662565b92915050565b6000806000606084860312156106a7576106a66104aa565b5b60006106b5868287016104fd565b935050602084013567ffffffffffffffff8111156106d6576106d56104af565b5b6106e28682870161062a565b92505060406106f386828701610679565b9150509250925092565b6000819050919050565b610710816106fd565b82525050565b600060208201905061072b6000830184610707565b92915050565b600067ffffffffffffffff82111561074c5761074b61052d565b5b6107558261051c565b9050602081019050919050565b600061077561077084610731565b61058d565b90508281526020810184848401111561079157610790610517565b5b61079c8482856105d9565b509392505050565b600082601f8301126107b9576107b8610512565b5b81356107c9848260208601610762565b91505092915050565b600080600080600060a086880312156107ee576107ed6104aa565b5b60006107fc888289016104fd565b955050602061080d888289016104fd565b945050604086013567ffffffffffffffff81111561082e5761082d6104af565b5b61083a8882890161062a565b935050606061084b88828901610679565b925050608086013567ffffffffffffffff81111561086c5761086b6104af565b5b610878888289016107a4565b9150509295509295909350565b60008115159050919050565b61089a81610885565b82525050565b60006020820190506108b56000830184610891565b92915050565b6108c4816106fd565b81146108cf57600080fd5b50565b6000813590506108e1816108bb565b92915050565b600080604083850312156108fe576108fd6104aa565b5b600061090c858286016108d2565b925050602083013567ffffffffffffffff81111561092d5761092c6104af565b5b610939858286016107a4565b9150509250929050565b61094c816104d4565b82525050565b60006020820190506109676000830184610943565b92915050565b600060208284031215610983576109826104aa565b5b600082013567ffffffffffffffff8111156109a1576109a06104af565b5b6109ad848285016107a4565b91505092915050565b600060ff82169050919050565b6109cc816109b6565b82525050565b60006060820190506109e76000830186610707565b6109f46020830185610707565b610a0160408301846109c3565b949350505050565b610a1281610885565b8114610a1d57600080fd5b50565b600081359050610a2f81610a09565b92915050565b60008060408385031215610a4c57610a4b6104aa565b5b6000610a5a858286016104fd565b9250506020610a6b85828601610a20565b9150509250929050565b600060208284031215610a8b57610a8a6104aa565b5b6000610a99848285016104fd565b91505092915050565b600060208284031215610ab857610ab76104aa565b5b6000610ac6848285016108d2565b91505092915050565b60008160601b9050919050565b6000610ae782610acf565b9050919050565b6000610af982610adc565b9050919050565b610b11610b0c826104d4565b610aee565b82525050565b600081519050919050565b600081905092915050565b60005b83811015610b4b578082015181840152602081019050610b30565b60008484015250505050565b6000610b6282610b17565b610b6c8185610b22565b9350610b7c818560208601610b2d565b80840191505092915050565b6000819050919050565b610ba3610b9e82610658565b610b88565b82525050565b6000610bb58286610b00565b601482019150610bc58285610b57565b9150610bd18284610b92565b602082019150819050949350505050565b6000608082019050610bf76000830187610707565b610c0460208301866109c3565b610c116040830185610707565b610c1e6060830184610707565b95945050505050565b600082825260208201905092915050565b7f696e76616c6964207369676e6174757265206c656e6774680000000000000000600082015250565b6000610c6e601883610c27565b9150610c7982610c38565b602082019050919050565b60006020820190508181036000830152610c9d81610c61565b9050919050565b7f19457468657265756d205369676e6564204d6573736167653a0a333200000000600082015250565b6000610cda601c83610b22565b9150610ce582610ca4565b601c82019050919050565b6000819050919050565b610d0b610d06826106fd565b610cf0565b82525050565b6000610d1c82610ccd565b9150610d288284610cfa565b6020820191508190509291505056fea264697066735822122040c93abfd005ce72c6076fddad2f2960de39d6404102d93832ddbcfa3a0a8cfa64736f6c63430008120033",
  "linkReferences": {},
  "deployedLinkReferences": {}
}