{
  "_format": "hh-sol-artifact-1",
  "contractName": "NFT_Passport",
  "sourceName": "contracts/NFT_Passport.sol",
  "abi": [
    {
      "inputs": [
        {
          "internalType": "address",
          "name": "_verificationContract",
          "type": "address"
        }
      ],
      "stateMutability": "nonpayable",
      "type": "constructor"
    },
    {
      "anonymous": false,
      "inputs": [
        {
          "indexed": true,
          "internalType": "address",
          "name": "owner",
          "type": "address"
        },
        {
          "indexed": true,
          "internalType": "address",
          "name": "approved",
          "type": "address"
        },
        {
          "indexed": true,
          "internalType": "uint256",
          "name": "tokenId",
          "type": "uint256"
        }
      ],
      "name": "Approval",
      "type": "event"
    },
    {
      "anonymous": false,
      "inputs": [
        {
          "indexed": true,
          "internalType": "address",
          "name": "owner",
          "type": "address"
        },
        {
          "indexed": true,
          "internalType": "address",
          "name": "operator",
          "type": "address"
        },
        {
          "indexed": false,
          "internalType": "bool",
          "name": "approved",
          "type": "bool"
        }
      ],
      "name": "ApprovalForAll",
      "type": "event"
    },
    {
      "anonymous": false,
      "inputs": [
        {
          "indexed": true,
          "internalType": "address",
          "name": "to",
          "type": "address"
        },
        {
          "indexed": true,
          "internalType": "uint256",
          "name": "tokenId",
          "type": "uint256"
        }
      ],
      "name": "Attest",
      "type": "event"
    },
    {
      "anonymous": false,
      "inputs": [
        {
          "indexed": true,
          "internalType": "address",
          "name": "previousOwner",
          "type": "address"
        },
        {
          "indexed": true,
          "internalType": "address",
          "name": "newOwner",
          "type": "address"
        }
      ],
      "name": "OwnershipTransferred",
      "type": "event"
    },
    {
      "anonymous": false,
      "inputs": [
        {
          "indexed": true,
          "internalType": "address",
          "name": "to",
          "type": "address"
        },
        {
          "indexed": true,
          "internalType": "uint256",
          "name": "tokenId",
          "type": "uint256"
        }
      ],
      "name": "Revoke",
      "type": "event"
    },
    {
      "anonymous": false,
      "inputs": [
        {
          "indexed": true,
          "internalType": "address",
          "name": "from",
          "type": "address"
        },
        {
          "indexed": true,
          "internalType": "address",
          "name": "to",
          "type": "address"
        },
        {
          "indexed": true,
          "internalType": "uint256",
          "name": "tokenId",
          "type": "uint256"
        }
      ],
      "name": "Transfer",
      "type": "event"
    },
    {
      "inputs": [
        {
          "internalType": "address",
          "name": "to",
          "type": "address"
        },
        {
          "internalType": "uint256",
          "name": "tokenId",
          "type": "uint256"
        }
      ],
      "name": "approve",
      "outputs": [],
      "stateMutability": "nonpayable",
      "type": "function"
    },
    {
      "inputs": [
        {
          "internalType": "address",
          "name": "owner",
          "type": "address"
        }
      ],
      "name": "balanceOf",
      "outputs": [
        {
          "internalType": "uint256",
          "name": "",
          "type": "uint256"
        }
      ],
      "stateMutability": "view",
      "type": "function"
    },
    {
      "inputs": [
        {
          "internalType": "uint256",
          "name": "tokenId",
          "type": "uint256"
        }
      ],
      "name": "burn",
      "outputs": [],
      "stateMutability": "nonpayable",
      "type": "function"
    },
    {
      "inputs": [
        {
          "internalType": "uint256",
          "name": "tokenId",
          "type": "uint256"
        }
      ],
      "name": "getApproved",
      "outputs": [
        {
          "internalType": "address",
          "name": "",
          "type": "address"
        }
      ],
      "stateMutability": "view",
      "type": "function"
    },
    {
      "inputs": [
        {
          "internalType": "address",
          "name": "owner",
          "type": "address"
        },
        {
          "internalType": "address",
          "name": "operator",
          "type": "address"
        }
      ],
      "name": "isApprovedForAll",
      "outputs": [
        {
          "internalType": "bool",
          "name": "",
          "type": "bool"
        }
      ],
      "stateMutability": "view",
      "type": "function"
    },
    {
      "inputs": [],
      "name": "name",
      "outputs": [
        {
          "internalType": "string",
          "name": "",
          "type": "string"
        }
      ],
      "stateMutability": "view",
      "type": "function"
    },
    {
      "inputs": [],
      "name": "owner",
      "outputs": [
        {
          "internalType": "address",
          "name": "",
          "type": "address"
        }
      ],
      "stateMutability": "view",
      "type": "function"
    },
    {
      "inputs": [
        {
          "internalType": "uint256",
          "name": "tokenId",
          "type": "uint256"
        }
      ],
      "name": "ownerOf",
      "outputs": [
        {
          "internalType": "address",
          "name": "",
          "type": "address"
        }
      ],
      "stateMutability": "view",
      "type": "function"
    },
    {
      "inputs": [],
      "name": "renounceOwnership",
      "outputs": [],
      "stateMutability": "nonpayable",
      "type": "function"
    },
    {
      "inputs": [
        {
          "internalType": "uint256",
          "name": "tokenId",
          "type": "uint256"
        }
      ],
      "name": "revoke",
      "outputs": [],
      "stateMutability": "nonpayable",
      "type": "function"
    },
    {
      "inputs": [
        {
          "internalType": "address",
          "name": "to",
          "type": "address"
        },
        {
          "internalType": "string",
          "name": "uri",
          "type": "string"
        }
      ],
      "name": "safeMint",
      "outputs": [],
      "stateMutability": "nonpayable",
      "type": "function"
    },
    {
      "inputs": [
        {
          "internalType": "address",
          "name": "from",
          "type": "address"
        },
        {
          "internalType": "address",
          "name": "to",
          "type": "address"
        },
        {
          "internalType": "uint256",
          "name": "tokenId",
          "type": "uint256"
        }
      ],
      "name": "safeTransferFrom",
      "outputs": [],
      "stateMutability": "nonpayable",
      "type": "function"
    },
    {
      "inputs": [
        {
          "internalType": "address",
          "name": "from",
          "type": "address"
        },
        {
          "internalType": "address",
          "name": "to",
          "type": "address"
        },
        {
          "internalType": "uint256",
          "name": "tokenId",
          "type": "uint256"
        },
        {
          "internalType": "bytes",
          "name": "data",
          "type": "bytes"
        }
      ],
      "name": "safeTransferFrom",
      "outputs": [],
      "stateMutability": "nonpayable",
      "type": "function"
    },
    {
      "inputs": [
        {
          "internalType": "address",
          "name": "operator",
          "type": "address"
        },
        {
          "internalType": "bool",
          "name": "approved",
          "type": "bool"
        }
      ],
      "name": "setApprovalForAll",
      "outputs": [],
      "stateMutability": "nonpayable",
      "type": "function"
    },
    {
      "inputs": [
        {
          "internalType": "bytes4",
          "name": "interfaceId",
          "type": "bytes4"
        }
      ],
      "name": "supportsInterface",
      "outputs": [
        {
          "internalType": "bool",
          "name": "",
          "type": "bool"
        }
      ],
      "stateMutability": "view",
      "type": "function"
    },
    {
      "inputs": [],
      "name": "symbol",
      "outputs": [
        {
          "internalType": "string",
          "name": "",
          "type": "string"
        }
      ],
      "stateMutability": "view",
      "type": "function"
    },
    {
      "inputs": [
        {
          "internalType": "uint256",
          "name": "tokenId",
          "type": "uint256"
        }
      ],
      "name": "tokenURI",
      "outputs": [
        {
          "internalType": "string",
          "name": "",
          "type": "string"
        }
      ],
      "stateMutability": "view",
      "type": "function"
    },
    {
      "inputs": [
        {
          "internalType": "address",
          "name": "from",
          "type": "address"
        },
        {
          "internalType": "address",
          "name": "to",
          "type": "address"
        },
        {
          "internalType": "uint256",
          "name": "tokenId",
          "type": "uint256"
        }
      ],
      "name": "transferFrom",
      "outputs": [],
      "stateMutability": "nonpayable",
      "type": "function"
    },
    {
      "inputs": [
        {
          "internalType": "address",
          "name": "newOwner",
          "type": "address"
        }
      ],
      "name": "transferOwnership",
      "outputs": [],
      "stateMutability": "nonpayable",
      "type": "function"
    },
    {
      "inputs": [],
      "name": "verificationContract",
      "outputs": [
        {
          "internalType": "contract IVerification",
          "name": "",
          "type": "address"
        }
      ],
      "stateMutability": "view",
      "type": "function"
    }
  ],
  "bytecode": "0x60806040523480156200001157600080fd5b5060405162003c2338038062003c23833981810160405281019062000037919062000269565b6040518060400160405280601581526020017f596f7572536f756c626f756e6450617373706f727400000000000000000000008152506040518060400160405280600581526020017f50535052540000000000000000000000000000000000000000000000000000008152508160009081620000b4919062000515565b508060019081620000c6919062000515565b505050620000e9620000dd6200013160201b60201c565b6200013960201b60201c565b80600960006101000a81548173ffffffffffffffffffffffffffffffffffffffff021916908373ffffffffffffffffffffffffffffffffffffffff16021790555050620005fc565b600033905090565b6000600760009054906101000a900473ffffffffffffffffffffffffffffffffffffffff16905081600760006101000a81548173ffffffffffffffffffffffffffffffffffffffff021916908373ffffffffffffffffffffffffffffffffffffffff1602179055508173ffffffffffffffffffffffffffffffffffffffff168173ffffffffffffffffffffffffffffffffffffffff167f8be0079c531659141344cd1fd0a4f28419497f9722a3daafe3b4186f6b6457e060405160405180910390a35050565b600080fd5b600073ffffffffffffffffffffffffffffffffffffffff82169050919050565b6000620002318262000204565b9050919050565b620002438162000224565b81146200024f57600080fd5b50565b600081519050620002638162000238565b92915050565b600060208284031215620002825762000281620001ff565b5b6000620002928482850162000252565b91505092915050565b600081519050919050565b7f4e487b7100000000000000000000000000000000000000000000000000000000600052604160045260246000fd5b7f4e487b7100000000000000000000000000000000000000000000000000000000600052602260045260246000fd5b600060028204905060018216806200031d57607f821691505b602082108103620003335762000332620002d5565b5b50919050565b60008190508160005260206000209050919050565b60006020601f8301049050919050565b600082821b905092915050565b6000600883026200039d7fffffffffffffffffffffffffffffffffffffffffffffffffffffffffffffffff826200035e565b620003a986836200035e565b95508019841693508086168417925050509392505050565b6000819050919050565b6000819050919050565b6000620003f6620003f0620003ea84620003c1565b620003cb565b620003c1565b9050919050565b6000819050919050565b6200041283620003d5565b6200042a6200042182620003fd565b8484546200036b565b825550505050565b600090565b6200044162000432565b6200044e81848462000407565b505050565b5b8181101562000476576200046a60008262000437565b60018101905062000454565b5050565b601f821115620004c5576200048f8162000339565b6200049a846200034e565b81016020851015620004aa578190505b620004c2620004b9856200034e565b83018262000453565b50505b505050565b600082821c905092915050565b6000620004ea60001984600802620004ca565b1980831691505092915050565b6000620005058383620004d7565b9150826002028217905092915050565b62000520826200029b565b67ffffffffffffffff8111156200053c576200053b620002a6565b5b62000548825462000304565b620005558282856200047a565b600060209050601f8311600181146200058d576000841562000578578287015190505b620005848582620004f7565b865550620005f4565b601f1984166200059d8662000339565b60005b82811015620005c757848901518255600182019150602085019450602081019050620005a0565b86831015620005e75784890151620005e3601f891682620004d7565b8355505b6001600288020188555050505b505050505050565b613617806200060c6000396000f3fe608060405234801561001057600080fd5b506004361061012c5760003560e01c8063715018a6116100ad578063b88d4fde11610071578063b88d4fde1461031b578063c87b56dd14610337578063d204c45e14610367578063e985e9c514610383578063f2fde38b146103b35761012c565b8063715018a61461029b5780637e222661146102a55780638da5cb5b146102c357806395d89b41146102e1578063a22cb465146102ff5761012c565b806323b872dd116100f457806323b872dd146101e757806342842e0e1461020357806342966c681461021f5780636352211e1461023b57806370a082311461026b5761012c565b806301ffc9a71461013157806306fdde0314610161578063081812fc1461017f578063095ea7b3146101af57806320c5429b146101cb575b600080fd5b61014b600480360381019061014691906121c6565b6103cf565b604051610158919061220e565b60405180910390f35b6101696104b1565b60405161017691906122b9565b60405180910390f35b61019960048036038101906101949190612311565b610543565b6040516101a6919061237f565b60405180910390f35b6101c960048036038101906101c491906123c6565b610589565b005b6101e560048036038101906101e09190612311565b6106a0565b005b61020160048036038101906101fc9190612406565b6106b4565b005b61021d60048036038101906102189190612406565b610714565b005b61023960048036038101906102349190612311565b610734565b005b61025560048036038101906102509190612311565b6107b6565b604051610262919061237f565b60405180910390f35b61028560048036038101906102809190612459565b61083c565b6040516102929190612495565b60405180910390f35b6102a36108f3565b005b6102ad610907565b6040516102ba919061250f565b60405180910390f35b6102cb61092d565b6040516102d8919061237f565b60405180910390f35b6102e9610957565b6040516102f691906122b9565b60405180910390f35b61031960048036038101906103149190612556565b6109e9565b005b610335600480360381019061033091906126cb565b6109ff565b005b610351600480360381019061034c9190612311565b610a61565b60405161035e91906122b9565b60405180910390f35b610381600480360381019061037c91906127ef565b610a73565b005b61039d6004803603810190610398919061284b565b610b7f565b6040516103aa919061220e565b60405180910390f35b6103cd60048036038101906103c89190612459565b610c13565b005b60007f80ac58cd000000000000000000000000000000000000000000000000000000007bffffffffffffffffffffffffffffffffffffffffffffffffffffffff1916827bffffffffffffffffffffffffffffffffffffffffffffffffffffffff1916148061049a57507f5b5e139f000000000000000000000000000000000000000000000000000000007bffffffffffffffffffffffffffffffffffffffffffffffffffffffff1916827bffffffffffffffffffffffffffffffffffffffffffffffffffffffff1916145b806104aa57506104a982610c96565b5b9050919050565b6060600080546104c0906128ba565b80601f01602080910402602001604051908101604052809291908181526020018280546104ec906128ba565b80156105395780601f1061050e57610100808354040283529160200191610539565b820191906000526020600020905b81548152906001019060200180831161051c57829003601f168201915b5050505050905090565b600061054e82610d00565b6004600083815260200190815260200160002060009054906101000a900473ffffffffffffffffffffffffffffffffffffffff169050919050565b6000610594826107b6565b90508073ffffffffffffffffffffffffffffffffffffffff168373ffffffffffffffffffffffffffffffffffffffff1603610604576040517f08c379a00000000000000000000000000000000000000000000000000000000081526004016105fb9061295d565b60405180910390fd5b8073ffffffffffffffffffffffffffffffffffffffff16610623610d4b565b73ffffffffffffffffffffffffffffffffffffffff16148061065257506106518161064c610d4b565b610b7f565b5b610691576040517f08c379a0000000000000000000000000000000000000000000000000000000008152600401610688906129ef565b60405180910390fd5b61069b8383610d53565b505050565b6106a8610e0c565b6106b181610e8a565b50565b6106c56106bf610d4b565b82610e96565b610704576040517f08c379a00000000000000000000000000000000000000000000000000000000081526004016106fb90612a81565b60405180910390fd5b61070f838383610f2b565b505050565b61072f838383604051806020016040528060008152506109ff565b505050565b3373ffffffffffffffffffffffffffffffffffffffff16610754826107b6565b73ffffffffffffffffffffffffffffffffffffffff16146107aa576040517f08c379a00000000000000000000000000000000000000000000000000000000081526004016107a190612b13565b60405180910390fd5b6107b381610e8a565b50565b6000806107c283611224565b9050600073ffffffffffffffffffffffffffffffffffffffff168173ffffffffffffffffffffffffffffffffffffffff1603610833576040517f08c379a000000000000000000000000000000000000000000000000000000000815260040161082a90612b7f565b60405180910390fd5b80915050919050565b60008073ffffffffffffffffffffffffffffffffffffffff168273ffffffffffffffffffffffffffffffffffffffff16036108ac576040517f08c379a00000000000000000000000000000000000000000000000000000000081526004016108a390612c11565b60405180910390fd5b600360008373ffffffffffffffffffffffffffffffffffffffff1673ffffffffffffffffffffffffffffffffffffffff168152602001908152602001600020549050919050565b6108fb610e0c565b6109056000611261565b565b600960009054906101000a900473ffffffffffffffffffffffffffffffffffffffff1681565b6000600760009054906101000a900473ffffffffffffffffffffffffffffffffffffffff16905090565b606060018054610966906128ba565b80601f0160208091040260200160405190810160405280929190818152602001828054610992906128ba565b80156109df5780601f106109b4576101008083540402835291602001916109df565b820191906000526020600020905b8154815290600101906020018083116109c257829003601f168201915b5050505050905090565b6109fb6109f4610d4b565b8383611327565b5050565b610a10610a0a610d4b565b83610e96565b610a4f576040517f08c379a0000000000000000000000000000000000000000000000000000000008152600401610a4690612a81565b60405180910390fd5b610a5b84848484611493565b50505050565b6060610a6c826114ef565b9050919050565b600960009054906101000a900473ffffffffffffffffffffffffffffffffffffffff1673ffffffffffffffffffffffffffffffffffffffff1663e35fe366836040518263ffffffff1660e01b8152600401610ace919061237f565b602060405180830381865afa158015610aeb573d6000803e3d6000fd5b505050506040513d601f19601f82011682018060405250810190610b0f9190612c46565b610b4e576040517f08c379a0000000000000000000000000000000000000000000000000000000008152600401610b4590612ce5565b60405180910390fd5b6000610b5a6008611601565b9050610b66600861160f565b610b708382611625565b610b7a8183611643565b505050565b6000600560008473ffffffffffffffffffffffffffffffffffffffff1673ffffffffffffffffffffffffffffffffffffffff16815260200190815260200160002060008373ffffffffffffffffffffffffffffffffffffffff1673ffffffffffffffffffffffffffffffffffffffff16815260200190815260200160002060009054906101000a900460ff16905092915050565b610c1b610e0c565b600073ffffffffffffffffffffffffffffffffffffffff168173ffffffffffffffffffffffffffffffffffffffff1603610c8a576040517f08c379a0000000000000000000000000000000000000000000000000000000008152600401610c8190612d77565b60405180910390fd5b610c9381611261565b50565b60007f01ffc9a7000000000000000000000000000000000000000000000000000000007bffffffffffffffffffffffffffffffffffffffffffffffffffffffff1916827bffffffffffffffffffffffffffffffffffffffffffffffffffffffff1916149050919050565b610d09816116b0565b610d48576040517f08c379a0000000000000000000000000000000000000000000000000000000008152600401610d3f90612b7f565b60405180910390fd5b50565b600033905090565b816004600083815260200190815260200160002060006101000a81548173ffffffffffffffffffffffffffffffffffffffff021916908373ffffffffffffffffffffffffffffffffffffffff160217905550808273ffffffffffffffffffffffffffffffffffffffff16610dc6836107b6565b73ffffffffffffffffffffffffffffffffffffffff167f8c5be1e5ebec7d5bd14f71427d1e84f3dd0314c0f7b2291e5b200ac8c7c3b92560405160405180910390a45050565b610e14610d4b565b73ffffffffffffffffffffffffffffffffffffffff16610e3261092d565b73ffffffffffffffffffffffffffffffffffffffff1614610e88576040517f08c379a0000000000000000000000000000000000000000000000000000000008152600401610e7f90612de3565b60405180910390fd5b565b610e93816116f1565b50565b600080610ea2836107b6565b90508073ffffffffffffffffffffffffffffffffffffffff168473ffffffffffffffffffffffffffffffffffffffff161480610ee45750610ee38185610b7f565b5b80610f2257508373ffffffffffffffffffffffffffffffffffffffff16610f0a84610543565b73ffffffffffffffffffffffffffffffffffffffff16145b91505092915050565b8273ffffffffffffffffffffffffffffffffffffffff16610f4b826107b6565b73ffffffffffffffffffffffffffffffffffffffff1614610fa1576040517f08c379a0000000000000000000000000000000000000000000000000000000008152600401610f9890612e75565b60405180910390fd5b600073ffffffffffffffffffffffffffffffffffffffff168273ffffffffffffffffffffffffffffffffffffffff1603611010576040517f08c379a000000000000000000000000000000000000000000000000000000000815260040161100790612f07565b60405180910390fd5b61101d8383836001611744565b8273ffffffffffffffffffffffffffffffffffffffff1661103d826107b6565b73ffffffffffffffffffffffffffffffffffffffff1614611093576040517f08c379a000000000000000000000000000000000000000000000000000000000815260040161108a90612e75565b60405180910390fd5b6004600082815260200190815260200160002060006101000a81549073ffffffffffffffffffffffffffffffffffffffff02191690556001600360008573ffffffffffffffffffffffffffffffffffffffff1673ffffffffffffffffffffffffffffffffffffffff168152602001908152602001600020600082825403925050819055506001600360008473ffffffffffffffffffffffffffffffffffffffff1673ffffffffffffffffffffffffffffffffffffffff16815260200190815260200160002060008282540192505081905550816002600083815260200190815260200160002060006101000a81548173ffffffffffffffffffffffffffffffffffffffff021916908373ffffffffffffffffffffffffffffffffffffffff160217905550808273ffffffffffffffffffffffffffffffffffffffff168473ffffffffffffffffffffffffffffffffffffffff167fddf252ad1be2c89b69c2b068fc378daa952ba7f163c4a11628f55a4df523b3ef60405160405180910390a461121f83838360016117f0565b505050565b60006002600083815260200190815260200160002060009054906101000a900473ffffffffffffffffffffffffffffffffffffffff169050919050565b6000600760009054906101000a900473ffffffffffffffffffffffffffffffffffffffff16905081600760006101000a81548173ffffffffffffffffffffffffffffffffffffffff021916908373ffffffffffffffffffffffffffffffffffffffff1602179055508173ffffffffffffffffffffffffffffffffffffffff168173ffffffffffffffffffffffffffffffffffffffff167f8be0079c531659141344cd1fd0a4f28419497f9722a3daafe3b4186f6b6457e060405160405180910390a35050565b8173ffffffffffffffffffffffffffffffffffffffff168373ffffffffffffffffffffffffffffffffffffffff1603611395576040517f08c379a000000000000000000000000000000000000000000000000000000000815260040161138c90612f73565b60405180910390fd5b80600560008573ffffffffffffffffffffffffffffffffffffffff1673ffffffffffffffffffffffffffffffffffffffff16815260200190815260200160002060008473ffffffffffffffffffffffffffffffffffffffff1673ffffffffffffffffffffffffffffffffffffffff16815260200190815260200160002060006101000a81548160ff0219169083151502179055508173ffffffffffffffffffffffffffffffffffffffff168373ffffffffffffffffffffffffffffffffffffffff167f17307eab39ab6107e8899845ad3d59bd9653f200f220920489ca2b5937696c3183604051611486919061220e565b60405180910390a3505050565b61149e848484610f2b565b6114aa848484846118ed565b6114e9576040517f08c379a00000000000000000000000000000000000000000000000000000000081526004016114e090613005565b60405180910390fd5b50505050565b60606114fa82610d00565b600060066000848152602001908152602001600020805461151a906128ba565b80601f0160208091040260200160405190810160405280929190818152602001828054611546906128ba565b80156115935780601f1061156857610100808354040283529160200191611593565b820191906000526020600020905b81548152906001019060200180831161157657829003601f168201915b5050505050905060006115a4611a74565b905060008151036115b95781925050506115fc565b6000825111156115ee5780826040516020016115d6929190613061565b604051602081830303815290604052925050506115fc565b6115f784611a8b565b925050505b919050565b600081600001549050919050565b6001816000016000828254019250508190555050565b61163f828260405180602001604052806000815250611af3565b5050565b61164c826116b0565b61168b576040517f08c379a0000000000000000000000000000000000000000000000000000000008152600401611682906130f7565b60405180910390fd5b806006600084815260200190815260200160002090816116ab91906132b9565b505050565b60008073ffffffffffffffffffffffffffffffffffffffff166116d283611224565b73ffffffffffffffffffffffffffffffffffffffff1614159050919050565b6116fa81611b4e565b600060066000838152602001908152602001600020805461171a906128ba565b9050146117415760066000828152602001908152602001600020600061174091906120fd565b5b50565b600073ffffffffffffffffffffffffffffffffffffffff168473ffffffffffffffffffffffffffffffffffffffff1614806117ab5750600073ffffffffffffffffffffffffffffffffffffffff168373ffffffffffffffffffffffffffffffffffffffff16145b6117ea576040517f08c379a00000000000000000000000000000000000000000000000000000000081526004016117e1906133d7565b60405180910390fd5b50505050565b600073ffffffffffffffffffffffffffffffffffffffff168473ffffffffffffffffffffffffffffffffffffffff160361186d57818373ffffffffffffffffffffffffffffffffffffffff167fe9274a84b19e9428826de6bae8c48329354f8f0e73f771b97cae2d9dccd45a2760405160405180910390a36118e7565b600073ffffffffffffffffffffffffffffffffffffffff168373ffffffffffffffffffffffffffffffffffffffff16036118e657818373ffffffffffffffffffffffffffffffffffffffff167fec9ab91322523c899ede7830ec9bfc992b5981cdcc27b91162fb23de5791117b60405160405180910390a35b5b50505050565b600061190e8473ffffffffffffffffffffffffffffffffffffffff16611c9c565b15611a67578373ffffffffffffffffffffffffffffffffffffffff1663150b7a02611937610d4b565b8786866040518563ffffffff1660e01b8152600401611959949392919061344c565b6020604051808303816000875af192505050801561199557506040513d601f19601f8201168201806040525081019061199291906134ad565b60015b611a17573d80600081146119c5576040519150601f19603f3d011682016040523d82523d6000602084013e6119ca565b606091505b506000815103611a0f576040517f08c379a0000000000000000000000000000000000000000000000000000000008152600401611a0690613005565b60405180910390fd5b805181602001fd5b63150b7a0260e01b7bffffffffffffffffffffffffffffffffffffffffffffffffffffffff1916817bffffffffffffffffffffffffffffffffffffffffffffffffffffffff191614915050611a6c565b600190505b949350505050565b606060405180602001604052806000815250905090565b6060611a9682610d00565b6000611aa0611a74565b90506000815111611ac05760405180602001604052806000815250611aeb565b80611aca84611cbf565b604051602001611adb929190613061565b6040516020818303038152906040525b915050919050565b611afd8383611d8d565b611b0a60008484846118ed565b611b49576040517f08c379a0000000000000000000000000000000000000000000000000000000008152600401611b4090613005565b60405180910390fd5b505050565b6000611b59826107b6565b9050611b69816000846001611744565b611b72826107b6565b90506004600083815260200190815260200160002060006101000a81549073ffffffffffffffffffffffffffffffffffffffff02191690556001600360008373ffffffffffffffffffffffffffffffffffffffff1673ffffffffffffffffffffffffffffffffffffffff168152602001908152602001600020600082825403925050819055506002600083815260200190815260200160002060006101000a81549073ffffffffffffffffffffffffffffffffffffffff021916905581600073ffffffffffffffffffffffffffffffffffffffff168273ffffffffffffffffffffffffffffffffffffffff167fddf252ad1be2c89b69c2b068fc378daa952ba7f163c4a11628f55a4df523b3ef60405160405180910390a4611c988160008460016117f0565b5050565b6000808273ffffffffffffffffffffffffffffffffffffffff163b119050919050565b606060006001611cce84611faa565b01905060008167ffffffffffffffff811115611ced57611cec6125a0565b5b6040519080825280601f01601f191660200182016040528015611d1f5781602001600182028036833780820191505090505b509050600082602001820190505b600115611d82578080600190039150507f3031323334353637383961626364656600000000000000000000000000000000600a86061a8153600a8581611d7657611d756134da565b5b04945060008503611d2d575b819350505050919050565b600073ffffffffffffffffffffffffffffffffffffffff168273ffffffffffffffffffffffffffffffffffffffff1603611dfc576040517f08c379a0000000000000000000000000000000000000000000000000000000008152600401611df390613555565b60405180910390fd5b611e05816116b0565b15611e45576040517f08c379a0000000000000000000000000000000000000000000000000000000008152600401611e3c906135c1565b60405180910390fd5b611e53600083836001611744565b611e5c816116b0565b15611e9c576040517f08c379a0000000000000000000000000000000000000000000000000000000008152600401611e93906135c1565b60405180910390fd5b6001600360008473ffffffffffffffffffffffffffffffffffffffff1673ffffffffffffffffffffffffffffffffffffffff16815260200190815260200160002060008282540192505081905550816002600083815260200190815260200160002060006101000a81548173ffffffffffffffffffffffffffffffffffffffff021916908373ffffffffffffffffffffffffffffffffffffffff160217905550808273ffffffffffffffffffffffffffffffffffffffff16600073ffffffffffffffffffffffffffffffffffffffff167fddf252ad1be2c89b69c2b068fc378daa952ba7f163c4a11628f55a4df523b3ef60405160405180910390a4611fa66000838360016117f0565b5050565b600080600090507a184f03e93ff9f4daa797ed6e38ed64bf6a1f0100000000000000008310612008577a184f03e93ff9f4daa797ed6e38ed64bf6a1f0100000000000000008381611ffe57611ffd6134da565b5b0492506040810190505b6d04ee2d6d415b85acef81000000008310612045576d04ee2d6d415b85acef8100000000838161203b5761203a6134da565b5b0492506020810190505b662386f26fc10000831061207457662386f26fc10000838161206a576120696134da565b5b0492506010810190505b6305f5e100831061209d576305f5e1008381612093576120926134da565b5b0492506008810190505b61271083106120c25761271083816120b8576120b76134da565b5b0492506004810190505b606483106120e557606483816120db576120da6134da565b5b0492506002810190505b600a83106120f4576001810190505b80915050919050565b508054612109906128ba565b6000825580601f1061211b575061213a565b601f016020900490600052602060002090810190612139919061213d565b5b50565b5b8082111561215657600081600090555060010161213e565b5090565b6000604051905090565b600080fd5b600080fd5b60007fffffffff0000000000000000000000000000000000000000000000000000000082169050919050565b6121a38161216e565b81146121ae57600080fd5b50565b6000813590506121c08161219a565b92915050565b6000602082840312156121dc576121db612164565b5b60006121ea848285016121b1565b91505092915050565b60008115159050919050565b612208816121f3565b82525050565b600060208201905061222360008301846121ff565b92915050565b600081519050919050565b600082825260208201905092915050565b60005b83811015612263578082015181840152602081019050612248565b60008484015250505050565b6000601f19601f8301169050919050565b600061228b82612229565b6122958185612234565b93506122a5818560208601612245565b6122ae8161226f565b840191505092915050565b600060208201905081810360008301526122d38184612280565b905092915050565b6000819050919050565b6122ee816122db565b81146122f957600080fd5b50565b60008135905061230b816122e5565b92915050565b60006020828403121561232757612326612164565b5b6000612335848285016122fc565b91505092915050565b600073ffffffffffffffffffffffffffffffffffffffff82169050919050565b60006123698261233e565b9050919050565b6123798161235e565b82525050565b60006020820190506123946000830184612370565b92915050565b6123a38161235e565b81146123ae57600080fd5b50565b6000813590506123c08161239a565b92915050565b600080604083850312156123dd576123dc612164565b5b60006123eb858286016123b1565b92505060206123fc858286016122fc565b9150509250929050565b60008060006060848603121561241f5761241e612164565b5b600061242d868287016123b1565b935050602061243e868287016123b1565b925050604061244f868287016122fc565b9150509250925092565b60006020828403121561246f5761246e612164565b5b600061247d848285016123b1565b91505092915050565b61248f816122db565b82525050565b60006020820190506124aa6000830184612486565b92915050565b6000819050919050565b60006124d56124d06124cb8461233e565b6124b0565b61233e565b9050919050565b60006124e7826124ba565b9050919050565b60006124f9826124dc565b9050919050565b612509816124ee565b82525050565b60006020820190506125246000830184612500565b92915050565b612533816121f3565b811461253e57600080fd5b50565b6000813590506125508161252a565b92915050565b6000806040838503121561256d5761256c612164565b5b600061257b858286016123b1565b925050602061258c85828601612541565b9150509250929050565b600080fd5b600080fd5b7f4e487b7100000000000000000000000000000000000000000000000000000000600052604160045260246000fd5b6125d88261226f565b810181811067ffffffffffffffff821117156125f7576125f66125a0565b5b80604052505050565b600061260a61215a565b905061261682826125cf565b919050565b600067ffffffffffffffff821115612636576126356125a0565b5b61263f8261226f565b9050602081019050919050565b82818337600083830152505050565b600061266e6126698461261b565b612600565b90508281526020810184848401111561268a5761268961259b565b5b61269584828561264c565b509392505050565b600082601f8301126126b2576126b1612596565b5b81356126c284826020860161265b565b91505092915050565b600080600080608085870312156126e5576126e4612164565b5b60006126f3878288016123b1565b9450506020612704878288016123b1565b9350506040612715878288016122fc565b925050606085013567ffffffffffffffff81111561273657612735612169565b5b6127428782880161269d565b91505092959194509250565b600067ffffffffffffffff821115612769576127686125a0565b5b6127728261226f565b9050602081019050919050565b600061279261278d8461274e565b612600565b9050828152602081018484840111156127ae576127ad61259b565b5b6127b984828561264c565b509392505050565b600082601f8301126127d6576127d5612596565b5b81356127e684826020860161277f565b91505092915050565b6000806040838503121561280657612805612164565b5b6000612814858286016123b1565b925050602083013567ffffffffffffffff81111561283557612834612169565b5b612841858286016127c1565b9150509250929050565b6000806040838503121561286257612861612164565b5b6000612870858286016123b1565b9250506020612881858286016123b1565b9150509250929050565b7f4e487b7100000000000000000000000000000000000000000000000000000000600052602260045260246000fd5b600060028204905060018216806128d257607f821691505b6020821081036128e5576128e461288b565b5b50919050565b7f4552433732313a20617070726f76616c20746f2063757272656e74206f776e6560008201527f7200000000000000000000000000000000000000000000000000000000000000602082015250565b6000612947602183612234565b9150612952826128eb565b604082019050919050565b600060208201905081810360008301526129768161293a565b9050919050565b7f4552433732313a20617070726f76652063616c6c6572206973206e6f7420746f60008201527f6b656e206f776e6572206f7220617070726f76656420666f7220616c6c000000602082015250565b60006129d9603d83612234565b91506129e48261297d565b604082019050919050565b60006020820190508181036000830152612a08816129cc565b9050919050565b7f4552433732313a2063616c6c6572206973206e6f7420746f6b656e206f776e6560008201527f72206f7220617070726f76656400000000000000000000000000000000000000602082015250565b6000612a6b602d83612234565b9150612a7682612a0f565b604082019050919050565b60006020820190508181036000830152612a9a81612a5e565b9050919050565b7f4f6e6c79206f776e6572206f662074686520746f6b656e2063616e206275726e60008201527f2069740000000000000000000000000000000000000000000000000000000000602082015250565b6000612afd602383612234565b9150612b0882612aa1565b604082019050919050565b60006020820190508181036000830152612b2c81612af0565b9050919050565b7f4552433732313a20696e76616c696420746f6b656e2049440000000000000000600082015250565b6000612b69601883612234565b9150612b7482612b33565b602082019050919050565b60006020820190508181036000830152612b9881612b5c565b9050919050565b7f4552433732313a2061646472657373207a65726f206973206e6f74206120766160008201527f6c6964206f776e65720000000000000000000000000000000000000000000000602082015250565b6000612bfb602983612234565b9150612c0682612b9f565b604082019050919050565b60006020820190508181036000830152612c2a81612bee565b9050919050565b600081519050612c408161252a565b92915050565b600060208284031215612c5c57612c5b612164565b5b6000612c6a84828501612c31565b91505092915050565b7f43616e2774206d696e742070617373706f727420746f204e4f5420766572696660008201527f6965642075736572732100000000000000000000000000000000000000000000602082015250565b6000612ccf602a83612234565b9150612cda82612c73565b604082019050919050565b60006020820190508181036000830152612cfe81612cc2565b9050919050565b7f4f776e61626c653a206e6577206f776e657220697320746865207a65726f206160008201527f6464726573730000000000000000000000000000000000000000000000000000602082015250565b6000612d61602683612234565b9150612d6c82612d05565b604082019050919050565b60006020820190508181036000830152612d9081612d54565b9050919050565b7f4f776e61626c653a2063616c6c6572206973206e6f7420746865206f776e6572600082015250565b6000612dcd602083612234565b9150612dd882612d97565b602082019050919050565b60006020820190508181036000830152612dfc81612dc0565b9050919050565b7f4552433732313a207472616e736665722066726f6d20696e636f72726563742060008201527f6f776e6572000000000000000000000000000000000000000000000000000000602082015250565b6000612e5f602583612234565b9150612e6a82612e03565b604082019050919050565b60006020820190508181036000830152612e8e81612e52565b9050919050565b7f4552433732313a207472616e7366657220746f20746865207a65726f2061646460008201527f7265737300000000000000000000000000000000000000000000000000000000602082015250565b6000612ef1602483612234565b9150612efc82612e95565b604082019050919050565b60006020820190508181036000830152612f2081612ee4565b9050919050565b7f4552433732313a20617070726f766520746f2063616c6c657200000000000000600082015250565b6000612f5d601983612234565b9150612f6882612f27565b602082019050919050565b60006020820190508181036000830152612f8c81612f50565b9050919050565b7f4552433732313a207472616e7366657220746f206e6f6e20455243373231526560008201527f63656976657220696d706c656d656e7465720000000000000000000000000000602082015250565b6000612fef603283612234565b9150612ffa82612f93565b604082019050919050565b6000602082019050818103600083015261301e81612fe2565b9050919050565b600081905092915050565b600061303b82612229565b6130458185613025565b9350613055818560208601612245565b80840191505092915050565b600061306d8285613030565b91506130798284613030565b91508190509392505050565b7f45524337323155524953746f726167653a2055524920736574206f66206e6f6e60008201527f6578697374656e7420746f6b656e000000000000000000000000000000000000602082015250565b60006130e1602e83612234565b91506130ec82613085565b604082019050919050565b60006020820190508181036000830152613110816130d4565b9050919050565b60008190508160005260206000209050919050565b60006020601f8301049050919050565b600082821b905092915050565b6000600883026131797fffffffffffffffffffffffffffffffffffffffffffffffffffffffffffffffff8261313c565b613183868361313c565b95508019841693508086168417925050509392505050565b60006131b66131b16131ac846122db565b6124b0565b6122db565b9050919050565b6000819050919050565b6131d08361319b565b6131e46131dc826131bd565b848454613149565b825550505050565b600090565b6131f96131ec565b6132048184846131c7565b505050565b5b818110156132285761321d6000826131f1565b60018101905061320a565b5050565b601f82111561326d5761323e81613117565b6132478461312c565b81016020851015613256578190505b61326a6132628561312c565b830182613209565b50505b505050565b600082821c905092915050565b600061329060001984600802613272565b1980831691505092915050565b60006132a9838361327f565b9150826002028217905092915050565b6132c282612229565b67ffffffffffffffff8111156132db576132da6125a0565b5b6132e582546128ba565b6132f082828561322c565b600060209050601f8311600181146133235760008415613311578287015190505b61331b858261329d565b865550613383565b601f19841661333186613117565b60005b8281101561335957848901518255600182019150602085019450602081019050613334565b868310156133765784890151613372601f89168261327f565b8355505b6001600288020188555050505b505050505050565b7f6f6e6c79206275726e696e672026206d696e74696e6700000000000000000000600082015250565b60006133c1601683612234565b91506133cc8261338b565b602082019050919050565b600060208201905081810360008301526133f0816133b4565b9050919050565b600081519050919050565b600082825260208201905092915050565b600061341e826133f7565b6134288185613402565b9350613438818560208601612245565b6134418161226f565b840191505092915050565b60006080820190506134616000830187612370565b61346e6020830186612370565b61347b6040830185612486565b818103606083015261348d8184613413565b905095945050505050565b6000815190506134a78161219a565b92915050565b6000602082840312156134c3576134c2612164565b5b60006134d184828501613498565b91505092915050565b7f4e487b7100000000000000000000000000000000000000000000000000000000600052601260045260246000fd5b7f4552433732313a206d696e7420746f20746865207a65726f2061646472657373600082015250565b600061353f602083612234565b915061354a82613509565b602082019050919050565b6000602082019050818103600083015261356e81613532565b9050919050565b7f4552433732313a20746f6b656e20616c7265616479206d696e74656400000000600082015250565b60006135ab601c83612234565b91506135b682613575565b602082019050919050565b600060208201905081810360008301526135da8161359e565b905091905056fea26469706673582212208401ebc738dae968529aa3131dacf3023c5132685b02c1c5abfd55b717d5107364736f6c63430008120033",
  "linkReferences": {},
  "deployedLinkReferences": {}
}