{
  "_format": "hh-sol-artifact-1",
  "contractName": "NFT_Passport",
  "sourceName": "contracts/NFT_Passport.sol",
  "abi": [
    {
      "anonymous": false,
      "inputs": [
        {
          "indexed": true,
          "internalType": "address",
          "name": "owner",
          "type": "address"
        },
        {
          "indexed": true,
          "internalType": "address",
          "name": "approved",
          "type": "address"
        },
        {
          "indexed": true,
          "internalType": "uint256",
          "name": "tokenId",
          "type": "uint256"
        }
      ],
      "name": "Approval",
      "type": "event"
    },
    {
      "anonymous": false,
      "inputs": [
        {
          "indexed": true,
          "internalType": "address",
          "name": "owner",
          "type": "address"
        },
        {
          "indexed": true,
          "internalType": "address",
          "name": "operator",
          "type": "address"
        },
        {
          "indexed": false,
          "internalType": "bool",
          "name": "approved",
          "type": "bool"
        }
      ],
      "name": "ApprovalForAll",
      "type": "event"
    },
    {
      "anonymous": false,
      "inputs": [
        {
          "indexed": true,
          "internalType": "address",
          "name": "to",
          "type": "address"
        },
        {
          "indexed": true,
          "internalType": "uint256",
          "name": "tokenId",
          "type": "uint256"
        }
      ],
      "name": "Attest",
      "type": "event"
    },
    {
      "anonymous": false,
      "inputs": [
        {
          "indexed": false,
          "internalType": "uint8",
          "name": "version",
          "type": "uint8"
        }
      ],
      "name": "Initialized",
      "type": "event"
    },
    {
      "anonymous": false,
      "inputs": [
        {
          "indexed": true,
          "internalType": "address",
          "name": "previousOwner",
          "type": "address"
        },
        {
          "indexed": true,
          "internalType": "address",
          "name": "newOwner",
          "type": "address"
        }
      ],
      "name": "OwnershipTransferred",
      "type": "event"
    },
    {
      "anonymous": false,
      "inputs": [
        {
          "indexed": true,
          "internalType": "address",
          "name": "to",
          "type": "address"
        },
        {
          "indexed": true,
          "internalType": "uint256",
          "name": "tokenId",
          "type": "uint256"
        }
      ],
      "name": "Revoke",
      "type": "event"
    },
    {
      "anonymous": false,
      "inputs": [
        {
          "indexed": true,
          "internalType": "address",
          "name": "from",
          "type": "address"
        },
        {
          "indexed": true,
          "internalType": "address",
          "name": "to",
          "type": "address"
        },
        {
          "indexed": true,
          "internalType": "uint256",
          "name": "tokenId",
          "type": "uint256"
        }
      ],
      "name": "Transfer",
      "type": "event"
    },
    {
      "inputs": [
        {
          "internalType": "address",
          "name": "to",
          "type": "address"
        },
        {
          "internalType": "uint256",
          "name": "tokenId",
          "type": "uint256"
        }
      ],
      "name": "approve",
      "outputs": [],
      "stateMutability": "nonpayable",
      "type": "function"
    },
    {
      "inputs": [
        {
          "internalType": "address",
          "name": "owner",
          "type": "address"
        }
      ],
      "name": "balanceOf",
      "outputs": [
        {
          "internalType": "uint256",
          "name": "",
          "type": "uint256"
        }
      ],
      "stateMutability": "view",
      "type": "function"
    },
    {
      "inputs": [
        {
          "internalType": "uint256",
          "name": "tokenId",
          "type": "uint256"
        }
      ],
      "name": "burn",
      "outputs": [],
      "stateMutability": "nonpayable",
      "type": "function"
    },
    {
      "inputs": [
        {
          "internalType": "uint256",
          "name": "tokenId",
          "type": "uint256"
        }
      ],
      "name": "getApproved",
      "outputs": [
        {
          "internalType": "address",
          "name": "",
          "type": "address"
        }
      ],
      "stateMutability": "view",
      "type": "function"
    },
    {
      "inputs": [
        {
          "internalType": "address",
          "name": "_verificationContract",
          "type": "address"
        }
      ],
      "name": "initialize",
      "outputs": [],
      "stateMutability": "nonpayable",
      "type": "function"
    },
    {
      "inputs": [
        {
          "internalType": "address",
          "name": "owner",
          "type": "address"
        },
        {
          "internalType": "address",
          "name": "operator",
          "type": "address"
        }
      ],
      "name": "isApprovedForAll",
      "outputs": [
        {
          "internalType": "bool",
          "name": "",
          "type": "bool"
        }
      ],
      "stateMutability": "view",
      "type": "function"
    },
    {
      "inputs": [],
      "name": "name",
      "outputs": [
        {
          "internalType": "string",
          "name": "",
          "type": "string"
        }
      ],
      "stateMutability": "view",
      "type": "function"
    },
    {
      "inputs": [],
      "name": "owner",
      "outputs": [
        {
          "internalType": "address",
          "name": "",
          "type": "address"
        }
      ],
      "stateMutability": "view",
      "type": "function"
    },
    {
      "inputs": [
        {
          "internalType": "uint256",
          "name": "tokenId",
          "type": "uint256"
        }
      ],
      "name": "ownerOf",
      "outputs": [
        {
          "internalType": "address",
          "name": "",
          "type": "address"
        }
      ],
      "stateMutability": "view",
      "type": "function"
    },
    {
      "inputs": [],
      "name": "renounceOwnership",
      "outputs": [],
      "stateMutability": "nonpayable",
      "type": "function"
    },
    {
      "inputs": [
        {
          "internalType": "uint256",
          "name": "tokenId",
          "type": "uint256"
        }
      ],
      "name": "revoke",
      "outputs": [],
      "stateMutability": "nonpayable",
      "type": "function"
    },
    {
      "inputs": [
        {
          "internalType": "address",
          "name": "to",
          "type": "address"
        },
        {
          "internalType": "string",
          "name": "uri",
          "type": "string"
        }
      ],
      "name": "safeMint",
      "outputs": [],
      "stateMutability": "nonpayable",
      "type": "function"
    },
    {
      "inputs": [
        {
          "internalType": "address",
          "name": "from",
          "type": "address"
        },
        {
          "internalType": "address",
          "name": "to",
          "type": "address"
        },
        {
          "internalType": "uint256",
          "name": "tokenId",
          "type": "uint256"
        }
      ],
      "name": "safeTransferFrom",
      "outputs": [],
      "stateMutability": "nonpayable",
      "type": "function"
    },
    {
      "inputs": [
        {
          "internalType": "address",
          "name": "from",
          "type": "address"
        },
        {
          "internalType": "address",
          "name": "to",
          "type": "address"
        },
        {
          "internalType": "uint256",
          "name": "tokenId",
          "type": "uint256"
        },
        {
          "internalType": "bytes",
          "name": "data",
          "type": "bytes"
        }
      ],
      "name": "safeTransferFrom",
      "outputs": [],
      "stateMutability": "nonpayable",
      "type": "function"
    },
    {
      "inputs": [
        {
          "internalType": "address",
          "name": "operator",
          "type": "address"
        },
        {
          "internalType": "bool",
          "name": "approved",
          "type": "bool"
        }
      ],
      "name": "setApprovalForAll",
      "outputs": [],
      "stateMutability": "nonpayable",
      "type": "function"
    },
    {
      "inputs": [
        {
          "internalType": "bytes4",
          "name": "interfaceId",
          "type": "bytes4"
        }
      ],
      "name": "supportsInterface",
      "outputs": [
        {
          "internalType": "bool",
          "name": "",
          "type": "bool"
        }
      ],
      "stateMutability": "view",
      "type": "function"
    },
    {
      "inputs": [],
      "name": "symbol",
      "outputs": [
        {
          "internalType": "string",
          "name": "",
          "type": "string"
        }
      ],
      "stateMutability": "view",
      "type": "function"
    },
    {
      "inputs": [
        {
          "internalType": "uint256",
          "name": "tokenId",
          "type": "uint256"
        }
      ],
      "name": "tokenURI",
      "outputs": [
        {
          "internalType": "string",
          "name": "",
          "type": "string"
        }
      ],
      "stateMutability": "view",
      "type": "function"
    },
    {
      "inputs": [
        {
          "internalType": "address",
          "name": "from",
          "type": "address"
        },
        {
          "internalType": "address",
          "name": "to",
          "type": "address"
        },
        {
          "internalType": "uint256",
          "name": "tokenId",
          "type": "uint256"
        }
      ],
      "name": "transferFrom",
      "outputs": [],
      "stateMutability": "nonpayable",
      "type": "function"
    },
    {
      "inputs": [
        {
          "internalType": "address",
          "name": "newOwner",
          "type": "address"
        }
      ],
      "name": "transferOwnership",
      "outputs": [],
      "stateMutability": "nonpayable",
      "type": "function"
    },
    {
      "inputs": [],
      "name": "verificationContract",
      "outputs": [
        {
          "internalType": "contract IVerification",
          "name": "",
          "type": "address"
        }
      ],
      "stateMutability": "view",
      "type": "function"
    }
  ],
  "bytecode": "0x608060405234801561001057600080fd5b50613ba4806100206000396000f3fe608060405234801561001057600080fd5b50600436106101375760003560e01c8063715018a6116100b8578063b88d4fde1161007c578063b88d4fde14610326578063c4d66de814610342578063c87b56dd1461035e578063d204c45e1461038e578063e985e9c5146103aa578063f2fde38b146103da57610137565b8063715018a6146102a65780637e222661146102b05780638da5cb5b146102ce57806395d89b41146102ec578063a22cb4651461030a57610137565b806323b872dd116100ff57806323b872dd146101f257806342842e0e1461020e57806342966c681461022a5780636352211e1461024657806370a082311461027657610137565b806301ffc9a71461013c57806306fdde031461016c578063081812fc1461018a578063095ea7b3146101ba57806320c5429b146101d6575b600080fd5b610156600480360381019061015191906125cc565b6103f6565b6040516101639190612614565b60405180910390f35b6101746104d8565b60405161018191906126bf565b60405180910390f35b6101a4600480360381019061019f9190612717565b61056a565b6040516101b19190612785565b60405180910390f35b6101d460048036038101906101cf91906127cc565b6105b0565b005b6101f060048036038101906101eb9190612717565b6106c7565b005b61020c6004803603810190610207919061280c565b6106db565b005b6102286004803603810190610223919061280c565b61073b565b005b610244600480360381019061023f9190612717565b61075b565b005b610260600480360381019061025b9190612717565b6107dd565b60405161026d9190612785565b60405180910390f35b610290600480360381019061028b919061285f565b610863565b60405161029d919061289b565b60405180910390f35b6102ae61091a565b005b6102b861092e565b6040516102c59190612915565b60405180910390f35b6102d6610954565b6040516102e39190612785565b60405180910390f35b6102f461097e565b60405161030191906126bf565b60405180910390f35b610324600480360381019061031f919061295c565b610a10565b005b610340600480360381019061033b9190612ad1565b610a26565b005b61035c6004803603810190610357919061285f565b610a88565b005b61037860048036038101906103739190612717565b610c84565b60405161038591906126bf565b60405180910390f35b6103a860048036038101906103a39190612bf5565b610c96565b005b6103c460048036038101906103bf9190612c51565b610daa565b6040516103d19190612614565b60405180910390f35b6103f460048036038101906103ef919061285f565b610e3e565b005b60007f80ac58cd000000000000000000000000000000000000000000000000000000007bffffffffffffffffffffffffffffffffffffffffffffffffffffffff1916827bffffffffffffffffffffffffffffffffffffffffffffffffffffffff191614806104c157507f5b5e139f000000000000000000000000000000000000000000000000000000007bffffffffffffffffffffffffffffffffffffffffffffffffffffffff1916827bffffffffffffffffffffffffffffffffffffffffffffffffffffffff1916145b806104d157506104d082610ec1565b5b9050919050565b6060606580546104e790612cc0565b80601f016020809104026020016040519081016040528092919081815260200182805461051390612cc0565b80156105605780601f1061053557610100808354040283529160200191610560565b820191906000526020600020905b81548152906001019060200180831161054357829003601f168201915b5050505050905090565b600061057582610f2b565b6069600083815260200190815260200160002060009054906101000a900473ffffffffffffffffffffffffffffffffffffffff169050919050565b60006105bb826107dd565b90508073ffffffffffffffffffffffffffffffffffffffff168373ffffffffffffffffffffffffffffffffffffffff160361062b576040517f08c379a000000000000000000000000000000000000000000000000000000000815260040161062290612d63565b60405180910390fd5b8073ffffffffffffffffffffffffffffffffffffffff1661064a610f76565b73ffffffffffffffffffffffffffffffffffffffff161480610679575061067881610673610f76565b610daa565b5b6106b8576040517f08c379a00000000000000000000000000000000000000000000000000000000081526004016106af90612df5565b60405180910390fd5b6106c28383610f7e565b505050565b6106cf611037565b6106d8816110b5565b50565b6106ec6106e6610f76565b826110c1565b61072b576040517f08c379a000000000000000000000000000000000000000000000000000000000815260040161072290612e87565b60405180910390fd5b610736838383611156565b505050565b61075683838360405180602001604052806000815250610a26565b505050565b3373ffffffffffffffffffffffffffffffffffffffff1661077b826107dd565b73ffffffffffffffffffffffffffffffffffffffff16146107d1576040517f08c379a00000000000000000000000000000000000000000000000000000000081526004016107c890612f19565b60405180910390fd5b6107da816110b5565b50565b6000806107e98361144f565b9050600073ffffffffffffffffffffffffffffffffffffffff168173ffffffffffffffffffffffffffffffffffffffff160361085a576040517f08c379a000000000000000000000000000000000000000000000000000000000815260040161085190612f85565b60405180910390fd5b80915050919050565b60008073ffffffffffffffffffffffffffffffffffffffff168273ffffffffffffffffffffffffffffffffffffffff16036108d3576040517f08c379a00000000000000000000000000000000000000000000000000000000081526004016108ca90613017565b60405180910390fd5b606860008373ffffffffffffffffffffffffffffffffffffffff1673ffffffffffffffffffffffffffffffffffffffff168152602001908152602001600020549050919050565b610922611037565b61092c600061148c565b565b60fc60009054906101000a900473ffffffffffffffffffffffffffffffffffffffff1681565b600060c960009054906101000a900473ffffffffffffffffffffffffffffffffffffffff16905090565b60606066805461098d90612cc0565b80601f01602080910402602001604051908101604052809291908181526020018280546109b990612cc0565b8015610a065780601f106109db57610100808354040283529160200191610a06565b820191906000526020600020905b8154815290600101906020018083116109e957829003601f168201915b5050505050905090565b610a22610a1b610f76565b8383611552565b5050565b610a37610a31610f76565b836110c1565b610a76576040517f08c379a0000000000000000000000000000000000000000000000000000000008152600401610a6d90612e87565b60405180910390fd5b610a82848484846116be565b50505050565b60008060019054906101000a900460ff16159050808015610ab95750600160008054906101000a900460ff1660ff16105b80610ae65750610ac83061171a565b158015610ae55750600160008054906101000a900460ff1660ff16145b5b610b25576040517f08c379a0000000000000000000000000000000000000000000000000000000008152600401610b1c906130a9565b60405180910390fd5b60016000806101000a81548160ff021916908360ff1602179055508015610b62576001600060016101000a81548160ff0219169083151502179055505b610bd66040518060400160405280601581526020017f596f7572536f756c626f756e6450617373706f727400000000000000000000008152506040518060400160405280600581526020017f505350525400000000000000000000000000000000000000000000000000000081525061173d565b610bde61179a565b610be66117eb565b8160fc60006101000a81548173ffffffffffffffffffffffffffffffffffffffff021916908373ffffffffffffffffffffffffffffffffffffffff1602179055508015610c805760008060016101000a81548160ff0219169083151502179055507f7f26b83ff96e1f2b6a682f133852f6798a09c465da95921460cefb38474024986001604051610c779190613111565b60405180910390a15b5050565b6060610c8f82611844565b9050919050565b610c9e611037565b60fc60009054906101000a900473ffffffffffffffffffffffffffffffffffffffff1673ffffffffffffffffffffffffffffffffffffffff1663e35fe366836040518263ffffffff1660e01b8152600401610cf99190612785565b602060405180830381865afa158015610d16573d6000803e3d6000fd5b505050506040513d601f19601f82011682018060405250810190610d3a9190613141565b610d79576040517f08c379a0000000000000000000000000000000000000000000000000000000008152600401610d70906131e0565b60405180910390fd5b6000610d8560fb611956565b9050610d9160fb611964565b610d9b838261197a565b610da58183611998565b505050565b6000606a60008473ffffffffffffffffffffffffffffffffffffffff1673ffffffffffffffffffffffffffffffffffffffff16815260200190815260200160002060008373ffffffffffffffffffffffffffffffffffffffff1673ffffffffffffffffffffffffffffffffffffffff16815260200190815260200160002060009054906101000a900460ff16905092915050565b610e46611037565b600073ffffffffffffffffffffffffffffffffffffffff168173ffffffffffffffffffffffffffffffffffffffff1603610eb5576040517f08c379a0000000000000000000000000000000000000000000000000000000008152600401610eac90613272565b60405180910390fd5b610ebe8161148c565b50565b60007f01ffc9a7000000000000000000000000000000000000000000000000000000007bffffffffffffffffffffffffffffffffffffffffffffffffffffffff1916827bffffffffffffffffffffffffffffffffffffffffffffffffffffffff1916149050919050565b610f3481611a05565b610f73576040517f08c379a0000000000000000000000000000000000000000000000000000000008152600401610f6a90612f85565b60405180910390fd5b50565b600033905090565b816069600083815260200190815260200160002060006101000a81548173ffffffffffffffffffffffffffffffffffffffff021916908373ffffffffffffffffffffffffffffffffffffffff160217905550808273ffffffffffffffffffffffffffffffffffffffff16610ff1836107dd565b73ffffffffffffffffffffffffffffffffffffffff167f8c5be1e5ebec7d5bd14f71427d1e84f3dd0314c0f7b2291e5b200ac8c7c3b92560405160405180910390a45050565b61103f610f76565b73ffffffffffffffffffffffffffffffffffffffff1661105d610954565b73ffffffffffffffffffffffffffffffffffffffff16146110b3576040517f08c379a00000000000000000000000000000000000000000000000000000000081526004016110aa906132de565b60405180910390fd5b565b6110be81611a46565b50565b6000806110cd836107dd565b90508073ffffffffffffffffffffffffffffffffffffffff168473ffffffffffffffffffffffffffffffffffffffff16148061110f575061110e8185610daa565b5b8061114d57508373ffffffffffffffffffffffffffffffffffffffff166111358461056a565b73ffffffffffffffffffffffffffffffffffffffff16145b91505092915050565b8273ffffffffffffffffffffffffffffffffffffffff16611176826107dd565b73ffffffffffffffffffffffffffffffffffffffff16146111cc576040517f08c379a00000000000000000000000000000000000000000000000000000000081526004016111c390613370565b60405180910390fd5b600073ffffffffffffffffffffffffffffffffffffffff168273ffffffffffffffffffffffffffffffffffffffff160361123b576040517f08c379a000000000000000000000000000000000000000000000000000000000815260040161123290613402565b60405180910390fd5b6112488383836001611a99565b8273ffffffffffffffffffffffffffffffffffffffff16611268826107dd565b73ffffffffffffffffffffffffffffffffffffffff16146112be576040517f08c379a00000000000000000000000000000000000000000000000000000000081526004016112b590613370565b60405180910390fd5b6069600082815260200190815260200160002060006101000a81549073ffffffffffffffffffffffffffffffffffffffff02191690556001606860008573ffffffffffffffffffffffffffffffffffffffff1673ffffffffffffffffffffffffffffffffffffffff168152602001908152602001600020600082825403925050819055506001606860008473ffffffffffffffffffffffffffffffffffffffff1673ffffffffffffffffffffffffffffffffffffffff16815260200190815260200160002060008282540192505081905550816067600083815260200190815260200160002060006101000a81548173ffffffffffffffffffffffffffffffffffffffff021916908373ffffffffffffffffffffffffffffffffffffffff160217905550808273ffffffffffffffffffffffffffffffffffffffff168473ffffffffffffffffffffffffffffffffffffffff167fddf252ad1be2c89b69c2b068fc378daa952ba7f163c4a11628f55a4df523b3ef60405160405180910390a461144a8383836001611b45565b505050565b60006067600083815260200190815260200160002060009054906101000a900473ffffffffffffffffffffffffffffffffffffffff169050919050565b600060c960009054906101000a900473ffffffffffffffffffffffffffffffffffffffff1690508160c960006101000a81548173ffffffffffffffffffffffffffffffffffffffff021916908373ffffffffffffffffffffffffffffffffffffffff1602179055508173ffffffffffffffffffffffffffffffffffffffff168173ffffffffffffffffffffffffffffffffffffffff167f8be0079c531659141344cd1fd0a4f28419497f9722a3daafe3b4186f6b6457e060405160405180910390a35050565b8173ffffffffffffffffffffffffffffffffffffffff168373ffffffffffffffffffffffffffffffffffffffff16036115c0576040517f08c379a00000000000000000000000000000000000000000000000000000000081526004016115b79061346e565b60405180910390fd5b80606a60008573ffffffffffffffffffffffffffffffffffffffff1673ffffffffffffffffffffffffffffffffffffffff16815260200190815260200160002060008473ffffffffffffffffffffffffffffffffffffffff1673ffffffffffffffffffffffffffffffffffffffff16815260200190815260200160002060006101000a81548160ff0219169083151502179055508173ffffffffffffffffffffffffffffffffffffffff168373ffffffffffffffffffffffffffffffffffffffff167f17307eab39ab6107e8899845ad3d59bd9653f200f220920489ca2b5937696c31836040516116b19190612614565b60405180910390a3505050565b6116c9848484611156565b6116d584848484611c42565b611714576040517f08c379a000000000000000000000000000000000000000000000000000000000815260040161170b90613500565b60405180910390fd5b50505050565b6000808273ffffffffffffffffffffffffffffffffffffffff163b119050919050565b600060019054906101000a900460ff1661178c576040517f08c379a000000000000000000000000000000000000000000000000000000000815260040161178390613592565b60405180910390fd5b6117968282611dc9565b5050565b600060019054906101000a900460ff166117e9576040517f08c379a00000000000000000000000000000000000000000000000000000000081526004016117e090613592565b60405180910390fd5b565b600060019054906101000a900460ff1661183a576040517f08c379a000000000000000000000000000000000000000000000000000000000815260040161183190613592565b60405180910390fd5b611842611e3c565b565b606061184f82610f2b565b600060976000848152602001908152602001600020805461186f90612cc0565b80601f016020809104026020016040519081016040528092919081815260200182805461189b90612cc0565b80156118e85780601f106118bd576101008083540402835291602001916118e8565b820191906000526020600020905b8154815290600101906020018083116118cb57829003601f168201915b5050505050905060006118f9611e9d565b9050600081510361190e578192505050611951565b60008251111561194357808260405160200161192b9291906135ee565b60405160208183030381529060405292505050611951565b61194c84611eb4565b925050505b919050565b600081600001549050919050565b6001816000016000828254019250508190555050565b611994828260405180602001604052806000815250611f1c565b5050565b6119a182611a05565b6119e0576040517f08c379a00000000000000000000000000000000000000000000000000000000081526004016119d790613684565b60405180910390fd5b80609760008481526020019081526020016000209081611a009190613846565b505050565b60008073ffffffffffffffffffffffffffffffffffffffff16611a278361144f565b73ffffffffffffffffffffffffffffffffffffffff1614159050919050565b611a4f81611f77565b6000609760008381526020019081526020016000208054611a6f90612cc0565b905014611a9657609760008281526020019081526020016000206000611a959190612503565b5b50565b600073ffffffffffffffffffffffffffffffffffffffff168473ffffffffffffffffffffffffffffffffffffffff161480611b005750600073ffffffffffffffffffffffffffffffffffffffff168373ffffffffffffffffffffffffffffffffffffffff16145b611b3f576040517f08c379a0000000000000000000000000000000000000000000000000000000008152600401611b3690613964565b60405180910390fd5b50505050565b600073ffffffffffffffffffffffffffffffffffffffff168473ffffffffffffffffffffffffffffffffffffffff1603611bc257818373ffffffffffffffffffffffffffffffffffffffff167fe9274a84b19e9428826de6bae8c48329354f8f0e73f771b97cae2d9dccd45a2760405160405180910390a3611c3c565b600073ffffffffffffffffffffffffffffffffffffffff168373ffffffffffffffffffffffffffffffffffffffff1603611c3b57818373ffffffffffffffffffffffffffffffffffffffff167fec9ab91322523c899ede7830ec9bfc992b5981cdcc27b91162fb23de5791117b60405160405180910390a35b5b50505050565b6000611c638473ffffffffffffffffffffffffffffffffffffffff1661171a565b15611dbc578373ffffffffffffffffffffffffffffffffffffffff1663150b7a02611c8c610f76565b8786866040518563ffffffff1660e01b8152600401611cae94939291906139d9565b6020604051808303816000875af1925050508015611cea57506040513d601f19601f82011682018060405250810190611ce79190613a3a565b60015b611d6c573d8060008114611d1a576040519150601f19603f3d011682016040523d82523d6000602084013e611d1f565b606091505b506000815103611d64576040517f08c379a0000000000000000000000000000000000000000000000000000000008152600401611d5b90613500565b60405180910390fd5b805181602001fd5b63150b7a0260e01b7bffffffffffffffffffffffffffffffffffffffffffffffffffffffff1916817bffffffffffffffffffffffffffffffffffffffffffffffffffffffff191614915050611dc1565b600190505b949350505050565b600060019054906101000a900460ff16611e18576040517f08c379a0000000000000000000000000000000000000000000000000000000008152600401611e0f90613592565b60405180910390fd5b8160659081611e279190613846565b508060669081611e379190613846565b505050565b600060019054906101000a900460ff16611e8b576040517f08c379a0000000000000000000000000000000000000000000000000000000008152600401611e8290613592565b60405180910390fd5b611e9b611e96610f76565b61148c565b565b606060405180602001604052806000815250905090565b6060611ebf82610f2b565b6000611ec9611e9d565b90506000815111611ee95760405180602001604052806000815250611f14565b80611ef3846120c5565b604051602001611f049291906135ee565b6040516020818303038152906040525b915050919050565b611f268383612193565b611f336000848484611c42565b611f72576040517f08c379a0000000000000000000000000000000000000000000000000000000008152600401611f6990613500565b60405180910390fd5b505050565b6000611f82826107dd565b9050611f92816000846001611a99565b611f9b826107dd565b90506069600083815260200190815260200160002060006101000a81549073ffffffffffffffffffffffffffffffffffffffff02191690556001606860008373ffffffffffffffffffffffffffffffffffffffff1673ffffffffffffffffffffffffffffffffffffffff168152602001908152602001600020600082825403925050819055506067600083815260200190815260200160002060006101000a81549073ffffffffffffffffffffffffffffffffffffffff021916905581600073ffffffffffffffffffffffffffffffffffffffff168273ffffffffffffffffffffffffffffffffffffffff167fddf252ad1be2c89b69c2b068fc378daa952ba7f163c4a11628f55a4df523b3ef60405160405180910390a46120c1816000846001611b45565b5050565b6060600060016120d4846123b0565b01905060008167ffffffffffffffff8111156120f3576120f26129a6565b5b6040519080825280601f01601f1916602001820160405280156121255781602001600182028036833780820191505090505b509050600082602001820190505b600115612188578080600190039150507f3031323334353637383961626364656600000000000000000000000000000000600a86061a8153600a858161217c5761217b613a67565b5b04945060008503612133575b819350505050919050565b600073ffffffffffffffffffffffffffffffffffffffff168273ffffffffffffffffffffffffffffffffffffffff1603612202576040517f08c379a00000000000000000000000000000000000000000000000000000000081526004016121f990613ae2565b60405180910390fd5b61220b81611a05565b1561224b576040517f08c379a000000000000000000000000000000000000000000000000000000000815260040161224290613b4e565b60405180910390fd5b612259600083836001611a99565b61226281611a05565b156122a2576040517f08c379a000000000000000000000000000000000000000000000000000000000815260040161229990613b4e565b60405180910390fd5b6001606860008473ffffffffffffffffffffffffffffffffffffffff1673ffffffffffffffffffffffffffffffffffffffff16815260200190815260200160002060008282540192505081905550816067600083815260200190815260200160002060006101000a81548173ffffffffffffffffffffffffffffffffffffffff021916908373ffffffffffffffffffffffffffffffffffffffff160217905550808273ffffffffffffffffffffffffffffffffffffffff16600073ffffffffffffffffffffffffffffffffffffffff167fddf252ad1be2c89b69c2b068fc378daa952ba7f163c4a11628f55a4df523b3ef60405160405180910390a46123ac600083836001611b45565b5050565b600080600090507a184f03e93ff9f4daa797ed6e38ed64bf6a1f010000000000000000831061240e577a184f03e93ff9f4daa797ed6e38ed64bf6a1f010000000000000000838161240457612403613a67565b5b0492506040810190505b6d04ee2d6d415b85acef8100000000831061244b576d04ee2d6d415b85acef8100000000838161244157612440613a67565b5b0492506020810190505b662386f26fc10000831061247a57662386f26fc1000083816124705761246f613a67565b5b0492506010810190505b6305f5e10083106124a3576305f5e100838161249957612498613a67565b5b0492506008810190505b61271083106124c85761271083816124be576124bd613a67565b5b0492506004810190505b606483106124eb57606483816124e1576124e0613a67565b5b0492506002810190505b600a83106124fa576001810190505b80915050919050565b50805461250f90612cc0565b6000825580601f106125215750612540565b601f01602090049060005260206000209081019061253f9190612543565b5b50565b5b8082111561255c576000816000905550600101612544565b5090565b6000604051905090565b600080fd5b600080fd5b60007fffffffff0000000000000000000000000000000000000000000000000000000082169050919050565b6125a981612574565b81146125b457600080fd5b50565b6000813590506125c6816125a0565b92915050565b6000602082840312156125e2576125e161256a565b5b60006125f0848285016125b7565b91505092915050565b60008115159050919050565b61260e816125f9565b82525050565b60006020820190506126296000830184612605565b92915050565b600081519050919050565b600082825260208201905092915050565b60005b8381101561266957808201518184015260208101905061264e565b60008484015250505050565b6000601f19601f8301169050919050565b60006126918261262f565b61269b818561263a565b93506126ab81856020860161264b565b6126b481612675565b840191505092915050565b600060208201905081810360008301526126d98184612686565b905092915050565b6000819050919050565b6126f4816126e1565b81146126ff57600080fd5b50565b600081359050612711816126eb565b92915050565b60006020828403121561272d5761272c61256a565b5b600061273b84828501612702565b91505092915050565b600073ffffffffffffffffffffffffffffffffffffffff82169050919050565b600061276f82612744565b9050919050565b61277f81612764565b82525050565b600060208201905061279a6000830184612776565b92915050565b6127a981612764565b81146127b457600080fd5b50565b6000813590506127c6816127a0565b92915050565b600080604083850312156127e3576127e261256a565b5b60006127f1858286016127b7565b925050602061280285828601612702565b9150509250929050565b6000806000606084860312156128255761282461256a565b5b6000612833868287016127b7565b9350506020612844868287016127b7565b925050604061285586828701612702565b9150509250925092565b6000602082840312156128755761287461256a565b5b6000612883848285016127b7565b91505092915050565b612895816126e1565b82525050565b60006020820190506128b0600083018461288c565b92915050565b6000819050919050565b60006128db6128d66128d184612744565b6128b6565b612744565b9050919050565b60006128ed826128c0565b9050919050565b60006128ff826128e2565b9050919050565b61290f816128f4565b82525050565b600060208201905061292a6000830184612906565b92915050565b612939816125f9565b811461294457600080fd5b50565b60008135905061295681612930565b92915050565b600080604083850312156129735761297261256a565b5b6000612981858286016127b7565b925050602061299285828601612947565b9150509250929050565b600080fd5b600080fd5b7f4e487b7100000000000000000000000000000000000000000000000000000000600052604160045260246000fd5b6129de82612675565b810181811067ffffffffffffffff821117156129fd576129fc6129a6565b5b80604052505050565b6000612a10612560565b9050612a1c82826129d5565b919050565b600067ffffffffffffffff821115612a3c57612a3b6129a6565b5b612a4582612675565b9050602081019050919050565b82818337600083830152505050565b6000612a74612a6f84612a21565b612a06565b905082815260208101848484011115612a9057612a8f6129a1565b5b612a9b848285612a52565b509392505050565b600082601f830112612ab857612ab761299c565b5b8135612ac8848260208601612a61565b91505092915050565b60008060008060808587031215612aeb57612aea61256a565b5b6000612af9878288016127b7565b9450506020612b0a878288016127b7565b9350506040612b1b87828801612702565b925050606085013567ffffffffffffffff811115612b3c57612b3b61256f565b5b612b4887828801612aa3565b91505092959194509250565b600067ffffffffffffffff821115612b6f57612b6e6129a6565b5b612b7882612675565b9050602081019050919050565b6000612b98612b9384612b54565b612a06565b905082815260208101848484011115612bb457612bb36129a1565b5b612bbf848285612a52565b509392505050565b600082601f830112612bdc57612bdb61299c565b5b8135612bec848260208601612b85565b91505092915050565b60008060408385031215612c0c57612c0b61256a565b5b6000612c1a858286016127b7565b925050602083013567ffffffffffffffff811115612c3b57612c3a61256f565b5b612c4785828601612bc7565b9150509250929050565b60008060408385031215612c6857612c6761256a565b5b6000612c76858286016127b7565b9250506020612c87858286016127b7565b9150509250929050565b7f4e487b7100000000000000000000000000000000000000000000000000000000600052602260045260246000fd5b60006002820490506001821680612cd857607f821691505b602082108103612ceb57612cea612c91565b5b50919050565b7f4552433732313a20617070726f76616c20746f2063757272656e74206f776e6560008201527f7200000000000000000000000000000000000000000000000000000000000000602082015250565b6000612d4d60218361263a565b9150612d5882612cf1565b604082019050919050565b60006020820190508181036000830152612d7c81612d40565b9050919050565b7f4552433732313a20617070726f76652063616c6c6572206973206e6f7420746f60008201527f6b656e206f776e6572206f7220617070726f76656420666f7220616c6c000000602082015250565b6000612ddf603d8361263a565b9150612dea82612d83565b604082019050919050565b60006020820190508181036000830152612e0e81612dd2565b9050919050565b7f4552433732313a2063616c6c6572206973206e6f7420746f6b656e206f776e6560008201527f72206f7220617070726f76656400000000000000000000000000000000000000602082015250565b6000612e71602d8361263a565b9150612e7c82612e15565b604082019050919050565b60006020820190508181036000830152612ea081612e64565b9050919050565b7f4f6e6c79206f776e6572206f662074686520746f6b656e2063616e206275726e60008201527f2069740000000000000000000000000000000000000000000000000000000000602082015250565b6000612f0360238361263a565b9150612f0e82612ea7565b604082019050919050565b60006020820190508181036000830152612f3281612ef6565b9050919050565b7f4552433732313a20696e76616c696420746f6b656e2049440000000000000000600082015250565b6000612f6f60188361263a565b9150612f7a82612f39565b602082019050919050565b60006020820190508181036000830152612f9e81612f62565b9050919050565b7f4552433732313a2061646472657373207a65726f206973206e6f74206120766160008201527f6c6964206f776e65720000000000000000000000000000000000000000000000602082015250565b600061300160298361263a565b915061300c82612fa5565b604082019050919050565b6000602082019050818103600083015261303081612ff4565b9050919050565b7f496e697469616c697a61626c653a20636f6e747261637420697320616c72656160008201527f647920696e697469616c697a6564000000000000000000000000000000000000602082015250565b6000613093602e8361263a565b915061309e82613037565b604082019050919050565b600060208201905081810360008301526130c281613086565b9050919050565b6000819050919050565b600060ff82169050919050565b60006130fb6130f66130f1846130c9565b6128b6565b6130d3565b9050919050565b61310b816130e0565b82525050565b60006020820190506131266000830184613102565b92915050565b60008151905061313b81612930565b92915050565b6000602082840312156131575761315661256a565b5b60006131658482850161312c565b91505092915050565b7f43616e2774206d696e742070617373706f727420746f204e4f5420766572696660008201527f6965642075736572732100000000000000000000000000000000000000000000602082015250565b60006131ca602a8361263a565b91506131d58261316e565b604082019050919050565b600060208201905081810360008301526131f9816131bd565b9050919050565b7f4f776e61626c653a206e6577206f776e657220697320746865207a65726f206160008201527f6464726573730000000000000000000000000000000000000000000000000000602082015250565b600061325c60268361263a565b915061326782613200565b604082019050919050565b6000602082019050818103600083015261328b8161324f565b9050919050565b7f4f776e61626c653a2063616c6c6572206973206e6f7420746865206f776e6572600082015250565b60006132c860208361263a565b91506132d382613292565b602082019050919050565b600060208201905081810360008301526132f7816132bb565b9050919050565b7f4552433732313a207472616e736665722066726f6d20696e636f72726563742060008201527f6f776e6572000000000000000000000000000000000000000000000000000000602082015250565b600061335a60258361263a565b9150613365826132fe565b604082019050919050565b600060208201905081810360008301526133898161334d565b9050919050565b7f4552433732313a207472616e7366657220746f20746865207a65726f2061646460008201527f7265737300000000000000000000000000000000000000000000000000000000602082015250565b60006133ec60248361263a565b91506133f782613390565b604082019050919050565b6000602082019050818103600083015261341b816133df565b9050919050565b7f4552433732313a20617070726f766520746f2063616c6c657200000000000000600082015250565b600061345860198361263a565b915061346382613422565b602082019050919050565b600060208201905081810360008301526134878161344b565b9050919050565b7f4552433732313a207472616e7366657220746f206e6f6e20455243373231526560008201527f63656976657220696d706c656d656e7465720000000000000000000000000000602082015250565b60006134ea60328361263a565b91506134f58261348e565b604082019050919050565b60006020820190508181036000830152613519816134dd565b9050919050565b7f496e697469616c697a61626c653a20636f6e7472616374206973206e6f74206960008201527f6e697469616c697a696e67000000000000000000000000000000000000000000602082015250565b600061357c602b8361263a565b915061358782613520565b604082019050919050565b600060208201905081810360008301526135ab8161356f565b9050919050565b600081905092915050565b60006135c88261262f565b6135d281856135b2565b93506135e281856020860161264b565b80840191505092915050565b60006135fa82856135bd565b915061360682846135bd565b91508190509392505050565b7f45524337323155524953746f726167653a2055524920736574206f66206e6f6e60008201527f6578697374656e7420746f6b656e000000000000000000000000000000000000602082015250565b600061366e602e8361263a565b915061367982613612565b604082019050919050565b6000602082019050818103600083015261369d81613661565b9050919050565b60008190508160005260206000209050919050565b60006020601f8301049050919050565b600082821b905092915050565b6000600883026137067fffffffffffffffffffffffffffffffffffffffffffffffffffffffffffffffff826136c9565b61371086836136c9565b95508019841693508086168417925050509392505050565b600061374361373e613739846126e1565b6128b6565b6126e1565b9050919050565b6000819050919050565b61375d83613728565b6137716137698261374a565b8484546136d6565b825550505050565b600090565b613786613779565b613791818484613754565b505050565b5b818110156137b5576137aa60008261377e565b600181019050613797565b5050565b601f8211156137fa576137cb816136a4565b6137d4846136b9565b810160208510156137e3578190505b6137f76137ef856136b9565b830182613796565b50505b505050565b600082821c905092915050565b600061381d600019846008026137ff565b1980831691505092915050565b6000613836838361380c565b9150826002028217905092915050565b61384f8261262f565b67ffffffffffffffff811115613868576138676129a6565b5b6138728254612cc0565b61387d8282856137b9565b600060209050601f8311600181146138b0576000841561389e578287015190505b6138a8858261382a565b865550613910565b601f1984166138be866136a4565b60005b828110156138e6578489015182556001820191506020850194506020810190506138c1565b8683101561390357848901516138ff601f89168261380c565b8355505b6001600288020188555050505b505050505050565b7f6f6e6c79206275726e696e672026206d696e74696e6700000000000000000000600082015250565b600061394e60168361263a565b915061395982613918565b602082019050919050565b6000602082019050818103600083015261397d81613941565b9050919050565b600081519050919050565b600082825260208201905092915050565b60006139ab82613984565b6139b5818561398f565b93506139c581856020860161264b565b6139ce81612675565b840191505092915050565b60006080820190506139ee6000830187612776565b6139fb6020830186612776565b613a08604083018561288c565b8181036060830152613a1a81846139a0565b905095945050505050565b600081519050613a34816125a0565b92915050565b600060208284031215613a5057613a4f61256a565b5b6000613a5e84828501613a25565b91505092915050565b7f4e487b7100000000000000000000000000000000000000000000000000000000600052601260045260246000fd5b7f4552433732313a206d696e7420746f20746865207a65726f2061646472657373600082015250565b6000613acc60208361263a565b9150613ad782613a96565b602082019050919050565b60006020820190508181036000830152613afb81613abf565b9050919050565b7f4552433732313a20746f6b656e20616c7265616479206d696e74656400000000600082015250565b6000613b38601c8361263a565b9150613b4382613b02565b602082019050919050565b60006020820190508181036000830152613b6781613b2b565b905091905056fea264697066735822122037ff07b402608925e2c0b4c92b2d56352bfffe7a63de8d20cb1c0007faea0ba164736f6c63430008120033",
  "linkReferences": {},
  "deployedLinkReferences": {}
}