{
  "abi": [
    {
      "anonymous": false,
      "inputs": [
        {
          "indexed": true,
          "internalType": "address",
          "name": "owner",
          "type": "address"
        },
        {
          "indexed": true,
          "internalType": "address",
          "name": "approved",
          "type": "address"
        },
        {
          "indexed": true,
          "internalType": "uint256",
          "name": "tokenId",
          "type": "uint256"
        }
      ],
      "name": "Approval",
      "type": "event"
    },
    {
      "anonymous": false,
      "inputs": [
        {
          "indexed": true,
          "internalType": "address",
          "name": "owner",
          "type": "address"
        },
        {
          "indexed": true,
          "internalType": "address",
          "name": "operator",
          "type": "address"
        },
        {
          "indexed": false,
          "internalType": "bool",
          "name": "approved",
          "type": "bool"
        }
      ],
      "name": "ApprovalForAll",
      "type": "event"
    },
    {
      "anonymous": false,
      "inputs": [
        {
          "indexed": true,
          "internalType": "address",
          "name": "to",
          "type": "address"
        },
        {
          "indexed": true,
          "internalType": "uint256",
          "name": "tokenId",
          "type": "uint256"
        }
      ],
      "name": "Attest",
      "type": "event"
    },
    {
      "anonymous": false,
      "inputs": [
        {
          "indexed": false,
          "internalType": "uint8",
          "name": "version",
          "type": "uint8"
        }
      ],
      "name": "Initialized",
      "type": "event"
    },
    {
      "anonymous": false,
      "inputs": [
        {
          "indexed": true,
          "internalType": "address",
          "name": "previousOwner",
          "type": "address"
        },
        {
          "indexed": true,
          "internalType": "address",
          "name": "newOwner",
          "type": "address"
        }
      ],
      "name": "OwnershipTransferred",
      "type": "event"
    },
    {
      "anonymous": false,
      "inputs": [
        {
          "indexed": true,
          "internalType": "address",
          "name": "to",
          "type": "address"
        },
        {
          "indexed": true,
          "internalType": "uint256",
          "name": "tokenId",
          "type": "uint256"
        }
      ],
      "name": "Revoke",
      "type": "event"
    },
    {
      "anonymous": false,
      "inputs": [
        {
          "indexed": true,
          "internalType": "address",
          "name": "from",
          "type": "address"
        },
        {
          "indexed": true,
          "internalType": "address",
          "name": "to",
          "type": "address"
        },
        {
          "indexed": true,
          "internalType": "uint256",
          "name": "tokenId",
          "type": "uint256"
        }
      ],
      "name": "Transfer",
      "type": "event"
    },
    {
      "inputs": [
        {
          "internalType": "address",
          "name": "to",
          "type": "address"
        },
        {
          "internalType": "uint256",
          "name": "tokenId",
          "type": "uint256"
        }
      ],
      "name": "approve",
      "outputs": [],
      "stateMutability": "nonpayable",
      "type": "function"
    },
    {
      "inputs": [
        {
          "internalType": "address",
          "name": "owner",
          "type": "address"
        }
      ],
      "name": "balanceOf",
      "outputs": [
        {
          "internalType": "uint256",
          "name": "",
          "type": "uint256"
        }
      ],
      "stateMutability": "view",
      "type": "function"
    },
    {
      "inputs": [
        {
          "internalType": "uint256",
          "name": "tokenId",
          "type": "uint256"
        }
      ],
      "name": "burn",
      "outputs": [],
      "stateMutability": "nonpayable",
      "type": "function"
    },
    {
      "inputs": [
        {
          "internalType": "uint256",
          "name": "tokenId",
          "type": "uint256"
        }
      ],
      "name": "getApproved",
      "outputs": [
        {
          "internalType": "address",
          "name": "",
          "type": "address"
        }
      ],
      "stateMutability": "view",
      "type": "function"
    },
    {
      "inputs": [
        {
          "internalType": "address",
          "name": "_verificationContract",
          "type": "address"
        }
      ],
      "name": "initialize",
      "outputs": [],
      "stateMutability": "nonpayable",
      "type": "function"
    },
    {
      "inputs": [
        {
          "internalType": "address",
          "name": "owner",
          "type": "address"
        },
        {
          "internalType": "address",
          "name": "operator",
          "type": "address"
        }
      ],
      "name": "isApprovedForAll",
      "outputs": [
        {
          "internalType": "bool",
          "name": "",
          "type": "bool"
        }
      ],
      "stateMutability": "view",
      "type": "function"
    },
    {
      "inputs": [],
      "name": "name",
      "outputs": [
        {
          "internalType": "string",
          "name": "",
          "type": "string"
        }
      ],
      "stateMutability": "view",
      "type": "function"
    },
    {
      "inputs": [],
      "name": "owner",
      "outputs": [
        {
          "internalType": "address",
          "name": "",
          "type": "address"
        }
      ],
      "stateMutability": "view",
      "type": "function"
    },
    {
      "inputs": [
        {
          "internalType": "uint256",
          "name": "tokenId",
          "type": "uint256"
        }
      ],
      "name": "ownerOf",
      "outputs": [
        {
          "internalType": "address",
          "name": "",
          "type": "address"
        }
      ],
      "stateMutability": "view",
      "type": "function"
    },
    {
      "inputs": [],
      "name": "renounceOwnership",
      "outputs": [],
      "stateMutability": "nonpayable",
      "type": "function"
    },
    {
      "inputs": [
        {
          "internalType": "uint256",
          "name": "tokenId",
          "type": "uint256"
        }
      ],
      "name": "revoke",
      "outputs": [],
      "stateMutability": "nonpayable",
      "type": "function"
    },
    {
      "inputs": [
        {
          "internalType": "address",
          "name": "to",
          "type": "address"
        },
        {
          "internalType": "string",
          "name": "uri",
          "type": "string"
        }
      ],
      "name": "safeMint",
      "outputs": [],
      "stateMutability": "nonpayable",
      "type": "function"
    },
    {
      "inputs": [
        {
          "internalType": "address",
          "name": "from",
          "type": "address"
        },
        {
          "internalType": "address",
          "name": "to",
          "type": "address"
        },
        {
          "internalType": "uint256",
          "name": "tokenId",
          "type": "uint256"
        }
      ],
      "name": "safeTransferFrom",
      "outputs": [],
      "stateMutability": "nonpayable",
      "type": "function"
    },
    {
      "inputs": [
        {
          "internalType": "address",
          "name": "from",
          "type": "address"
        },
        {
          "internalType": "address",
          "name": "to",
          "type": "address"
        },
        {
          "internalType": "uint256",
          "name": "tokenId",
          "type": "uint256"
        },
        {
          "internalType": "bytes",
          "name": "data",
          "type": "bytes"
        }
      ],
      "name": "safeTransferFrom",
      "outputs": [],
      "stateMutability": "nonpayable",
      "type": "function"
    },
    {
      "inputs": [
        {
          "internalType": "address",
          "name": "operator",
          "type": "address"
        },
        {
          "internalType": "bool",
          "name": "approved",
          "type": "bool"
        }
      ],
      "name": "setApprovalForAll",
      "outputs": [],
      "stateMutability": "nonpayable",
      "type": "function"
    },
    {
      "inputs": [
        {
          "internalType": "bytes4",
          "name": "interfaceId",
          "type": "bytes4"
        }
      ],
      "name": "supportsInterface",
      "outputs": [
        {
          "internalType": "bool",
          "name": "",
          "type": "bool"
        }
      ],
      "stateMutability": "view",
      "type": "function"
    },
    {
      "inputs": [],
      "name": "symbol",
      "outputs": [
        {
          "internalType": "string",
          "name": "",
          "type": "string"
        }
      ],
      "stateMutability": "view",
      "type": "function"
    },
    {
      "inputs": [
        {
          "internalType": "uint256",
          "name": "tokenId",
          "type": "uint256"
        }
      ],
      "name": "tokenURI",
      "outputs": [
        {
          "internalType": "string",
          "name": "",
          "type": "string"
        }
      ],
      "stateMutability": "view",
      "type": "function"
    },
    {
      "inputs": [
        {
          "internalType": "address",
          "name": "from",
          "type": "address"
        },
        {
          "internalType": "address",
          "name": "to",
          "type": "address"
        },
        {
          "internalType": "uint256",
          "name": "tokenId",
          "type": "uint256"
        }
      ],
      "name": "transferFrom",
      "outputs": [],
      "stateMutability": "nonpayable",
      "type": "function"
    },
    {
      "inputs": [
        {
          "internalType": "address",
          "name": "newOwner",
          "type": "address"
        }
      ],
      "name": "transferOwnership",
      "outputs": [],
      "stateMutability": "nonpayable",
      "type": "function"
    },
    {
      "inputs": [],
      "name": "verificationContract",
      "outputs": [
        {
          "internalType": "contract IVerification",
          "name": "",
          "type": "address"
        }
      ],
      "stateMutability": "view",
      "type": "function"
    }
  ],
  "bytecode": {
    "object": "0x608060405234801561001057600080fd5b50611ef7806100206000396000f3fe608060405234801561001057600080fd5b50600436106101375760003560e01c8063715018a6116100b8578063b88d4fde1161007c578063b88d4fde14610280578063c4d66de814610293578063c87b56dd146102a6578063d204c45e146102b9578063e985e9c5146102cc578063f2fde38b1461030857600080fd5b8063715018a6146102395780637e222661146102415780638da5cb5b1461025457806395d89b4114610265578063a22cb4651461026d57600080fd5b806323b872dd116100ff57806323b872dd146101cc57806342842e0e146101df57806342966c68146101f25780636352211e1461020557806370a082311461021857600080fd5b806301ffc9a71461013c57806306fdde0314610164578063081812fc14610179578063095ea7b3146101a457806320c5429b146101b9575b600080fd5b61014f61014a36600461188c565b61031b565b60405190151581526020015b60405180910390f35b61016c61036d565b60405161015b91906118f9565b61018c61018736600461190c565b6103ff565b6040516001600160a01b03909116815260200161015b565b6101b76101b2366004611941565b610426565b005b6101b76101c736600461190c565b610540565b6101b76101da36600461196b565b610554565b6101b76101ed36600461196b565b610585565b6101b761020036600461190c565b6105a0565b61018c61021336600461190c565b61060c565b61022b6102263660046119a7565b61066c565b60405190815260200161015b565b6101b76106f2565b60fc5461018c906001600160a01b031681565b60c9546001600160a01b031661018c565b61016c610706565b6101b761027b3660046119d0565b610715565b6101b761028e366004611a93565b610724565b6101b76102a13660046119a7565b61075c565b61016c6102b436600461190c565b6108e4565b6101b76102c7366004611b0f565b6108ef565b61014f6102da366004611b71565b6001600160a01b039182166000908152606a6020908152604080832093909416825291909152205460ff1690565b6101b76103163660046119a7565b6109f3565b60006001600160e01b031982166380ac58cd60e01b148061034c57506001600160e01b03198216635b5e139f60e01b145b8061036757506301ffc9a760e01b6001600160e01b03198316145b92915050565b60606065805461037c90611ba4565b80601f01602080910402602001604051908101604052809291908181526020018280546103a890611ba4565b80156103f55780601f106103ca576101008083540402835291602001916103f5565b820191906000526020600020905b8154815290600101906020018083116103d857829003601f168201915b5050505050905090565b600061040a82610a69565b506000908152606960205260409020546001600160a01b031690565b60006104318261060c565b9050806001600160a01b0316836001600160a01b0316036104a35760405162461bcd60e51b815260206004820152602160248201527f4552433732313a20617070726f76616c20746f2063757272656e74206f776e656044820152603960f91b60648201526084015b60405180910390fd5b336001600160a01b03821614806104bf57506104bf81336102da565b6105315760405162461bcd60e51b815260206004820152603d60248201527f4552433732313a20617070726f76652063616c6c6572206973206e6f7420746f60448201527f6b656e206f776e6572206f7220617070726f76656420666f7220616c6c000000606482015260840161049a565b61053b8383610ac8565b505050565b610548610b36565b61055181610b90565b50565b61055e3382610b99565b61057a5760405162461bcd60e51b815260040161049a90611bde565b61053b838383610c18565b61053b83838360405180602001604052806000815250610724565b336105aa8261060c565b6001600160a01b0316146105485760405162461bcd60e51b815260206004820152602360248201527f4f6e6c79206f776e6572206f662074686520746f6b656e2063616e206275726e604482015262081a5d60ea1b606482015260840161049a565b6000818152606760205260408120546001600160a01b0316806103675760405162461bcd60e51b8152602060048201526018602482015277115490cdcc8c4e881a5b9d985b1a59081d1bdad95b88125160421b604482015260640161049a565b60006001600160a01b0382166106d65760405162461bcd60e51b815260206004820152602960248201527f4552433732313a2061646472657373207a65726f206973206e6f7420612076616044820152683634b21037bbb732b960b91b606482015260840161049a565b506001600160a01b031660009081526068602052604090205490565b6106fa610b36565b6107046000610d91565b565b60606066805461037c90611ba4565b610720338383610de3565b5050565b61072e3383610b99565b61074a5760405162461bcd60e51b815260040161049a90611bde565b61075684848484610eb1565b50505050565b600054610100900460ff161580801561077c5750600054600160ff909116105b806107965750303b158015610796575060005460ff166001145b6107f95760405162461bcd60e51b815260206004820152602e60248201527f496e697469616c697a61626c653a20636f6e747261637420697320616c72656160448201526d191e481a5b9a5d1a585b1a5e995960921b606482015260840161049a565b6000805460ff19166001179055801561081c576000805461ff0019166101001790555b61087060405180604001604052806015815260200174165bdd5c94dbdd5b189bdd5b9914185cdcdc1bdc9d605a1b815250604051806040016040528060058152602001641414d4149560da1b815250610ee4565b610878610f15565b610880610f3c565b60fc80546001600160a01b0319166001600160a01b0384161790558015610720576000805461ff0019169055604051600181527f7f26b83ff96e1f2b6a682f133852f6798a09c465da95921460cefb38474024989060200160405180910390a15050565b606061036782610f6b565b6108f7610b36565b60fc546040516371aff1b360e11b81526001600160a01b0384811660048301529091169063e35fe36690602401602060405180830381865afa158015610941573d6000803e3d6000fd5b505050506040513d601f19601f820116820180604052508101906109659190611c2b565b6109c45760405162461bcd60e51b815260206004820152602a60248201527f43616e2774206d696e742070617373706f727420746f204e4f542076657269666044820152696965642075736572732160b01b606482015260840161049a565b60006109cf60fb5490565b90506109df60fb80546001019055565b6109e98382611073565b61053b818361108d565b6109fb610b36565b6001600160a01b038116610a605760405162461bcd60e51b815260206004820152602660248201527f4f776e61626c653a206e6577206f776e657220697320746865207a65726f206160448201526564647265737360d01b606482015260840161049a565b61055181610d91565b6000818152606760205260409020546001600160a01b03166105515760405162461bcd60e51b8152602060048201526018602482015277115490cdcc8c4e881a5b9d985b1a59081d1bdad95b88125160421b604482015260640161049a565b600081815260696020526040902080546001600160a01b0319166001600160a01b0384169081179091558190610afd8261060c565b6001600160a01b03167f8c5be1e5ebec7d5bd14f71427d1e84f3dd0314c0f7b2291e5b200ac8c7c3b92560405160405180910390a45050565b60c9546001600160a01b031633146107045760405162461bcd60e51b815260206004820181905260248201527f4f776e61626c653a2063616c6c6572206973206e6f7420746865206f776e6572604482015260640161049a565b61055181611120565b600080610ba58361060c565b9050806001600160a01b0316846001600160a01b03161480610bec57506001600160a01b038082166000908152606a602090815260408083209388168352929052205460ff165b80610c105750836001600160a01b0316610c05846103ff565b6001600160a01b0316145b949350505050565b826001600160a01b0316610c2b8261060c565b6001600160a01b031614610c515760405162461bcd60e51b815260040161049a90611c48565b6001600160a01b038216610cb35760405162461bcd60e51b8152602060048201526024808201527f4552433732313a207472616e7366657220746f20746865207a65726f206164646044820152637265737360e01b606482015260840161049a565b610cc08383836001611160565b826001600160a01b0316610cd38261060c565b6001600160a01b031614610cf95760405162461bcd60e51b815260040161049a90611c48565b600081815260696020908152604080832080546001600160a01b03199081169091556001600160a01b0387811680865260688552838620805460001901905590871680865283862080546001019055868652606790945282852080549092168417909155905184937fddf252ad1be2c89b69c2b068fc378daa952ba7f163c4a11628f55a4df523b3ef91a461053b83838360016111c2565b60c980546001600160a01b038381166001600160a01b0319831681179093556040519116919082907f8be0079c531659141344cd1fd0a4f28419497f9722a3daafe3b4186f6b6457e090600090a35050565b816001600160a01b0316836001600160a01b031603610e445760405162461bcd60e51b815260206004820152601960248201527f4552433732313a20617070726f766520746f2063616c6c657200000000000000604482015260640161049a565b6001600160a01b038381166000818152606a6020908152604080832094871680845294825291829020805460ff191686151590811790915591519182527f17307eab39ab6107e8899845ad3d59bd9653f200f220920489ca2b5937696c31910160405180910390a3505050565b610ebc848484610c18565b610ec884848484611255565b6107565760405162461bcd60e51b815260040161049a90611c8d565b600054610100900460ff16610f0b5760405162461bcd60e51b815260040161049a90611cdf565b6107208282611356565b600054610100900460ff166107045760405162461bcd60e51b815260040161049a90611cdf565b600054610100900460ff16610f635760405162461bcd60e51b815260040161049a90611cdf565b610704611396565b6060610f7682610a69565b60008281526097602052604081208054610f8f90611ba4565b80601f0160208091040260200160405190810160405280929190818152602001828054610fbb90611ba4565b80156110085780601f10610fdd57610100808354040283529160200191611008565b820191906000526020600020905b815481529060010190602001808311610feb57829003601f168201915b50505050509050600061102660408051602081019091526000815290565b90508051600003611038575092915050565b81511561106a578082604051602001611052929190611d2a565b60405160208183030381529060405292505050919050565b610c10846113c6565b61072082826040518060200160405280600081525061143a565b6000828152606760205260409020546001600160a01b03166111085760405162461bcd60e51b815260206004820152602e60248201527f45524337323155524953746f726167653a2055524920736574206f66206e6f6e60448201526d32bc34b9ba32b73a103a37b5b2b760911b606482015260840161049a565b600082815260976020526040902061053b8282611da7565b6111298161146d565b6000818152609760205260409020805461114290611ba4565b15905061055157600081815260976020526040812061055191611828565b6001600160a01b038416158061117d57506001600160a01b038316155b6107565760405162461bcd60e51b81526020600482015260166024820152756f6e6c79206275726e696e672026206d696e74696e6760501b604482015260640161049a565b6001600160a01b03841661120b5760405182906001600160a01b038516907fe9274a84b19e9428826de6bae8c48329354f8f0e73f771b97cae2d9dccd45a2790600090a3610756565b6001600160a01b0383166107565760405182906001600160a01b038516907fec9ab91322523c899ede7830ec9bfc992b5981cdcc27b91162fb23de5791117b90600090a350505050565b60006001600160a01b0384163b1561134b57604051630a85bd0160e11b81526001600160a01b0385169063150b7a0290611299903390899088908890600401611e67565b6020604051808303816000875af19250505080156112d4575060408051601f3d908101601f191682019092526112d191810190611ea4565b60015b611331573d808015611302576040519150601f19603f3d011682016040523d82523d6000602084013e611307565b606091505b5080516000036113295760405162461bcd60e51b815260040161049a90611c8d565b805181602001fd5b6001600160e01b031916630a85bd0160e11b149050610c10565b506001949350505050565b600054610100900460ff1661137d5760405162461bcd60e51b815260040161049a90611cdf565b60656113898382611da7565b50606661053b8282611da7565b600054610100900460ff166113bd5760405162461bcd60e51b815260040161049a90611cdf565b61070433610d91565b60606113d182610a69565b60006113e860408051602081019091526000815290565b905060008151116114085760405180602001604052806000815250611433565b806114128461151a565b604051602001611423929190611d2a565b6040516020818303038152906040525b9392505050565b61144483836115ad565b6114516000848484611255565b61053b5760405162461bcd60e51b815260040161049a90611c8d565b60006114788261060c565b9050611488816000846001611160565b6114918261060c565b600083815260696020908152604080832080546001600160a01b03199081169091556001600160a01b0385168085526068845282852080546000190190558785526067909352818420805490911690555192935084927fddf252ad1be2c89b69c2b068fc378daa952ba7f163c4a11628f55a4df523b3ef908390a46107208160008460016111c2565b6060600061152783611750565b600101905060008167ffffffffffffffff81111561154757611547611a07565b6040519080825280601f01601f191660200182016040528015611571576020820181803683370190505b5090508181016020015b600019016f181899199a1a9b1b9c1cb0b131b232b360811b600a86061a8153600a850494508461157b57509392505050565b6001600160a01b0382166116035760405162461bcd60e51b815260206004820181905260248201527f4552433732313a206d696e7420746f20746865207a65726f2061646472657373604482015260640161049a565b6000818152606760205260409020546001600160a01b0316156116685760405162461bcd60e51b815260206004820152601c60248201527f4552433732313a20746f6b656e20616c7265616479206d696e74656400000000604482015260640161049a565b611676600083836001611160565b6000818152606760205260409020546001600160a01b0316156116db5760405162461bcd60e51b815260206004820152601c60248201527f4552433732313a20746f6b656e20616c7265616479206d696e74656400000000604482015260640161049a565b6001600160a01b038216600081815260686020908152604080832080546001019055848352606790915280822080546001600160a01b0319168417905551839291907fddf252ad1be2c89b69c2b068fc378daa952ba7f163c4a11628f55a4df523b3ef908290a46107206000838360016111c2565b60008072184f03e93ff9f4daa797ed6e38ed64bf6a1f0160401b831061178f5772184f03e93ff9f4daa797ed6e38ed64bf6a1f0160401b830492506040015b6d04ee2d6d415b85acef810000000083106117bb576d04ee2d6d415b85acef8100000000830492506020015b662386f26fc1000083106117d957662386f26fc10000830492506010015b6305f5e10083106117f1576305f5e100830492506008015b612710831061180557612710830492506004015b60648310611817576064830492506002015b600a83106103675760010192915050565b50805461183490611ba4565b6000825580601f10611844575050565b601f01602090049060005260206000209081019061055191905b80821115611872576000815560010161185e565b5090565b6001600160e01b03198116811461055157600080fd5b60006020828403121561189e57600080fd5b813561143381611876565b60005b838110156118c45781810151838201526020016118ac565b50506000910152565b600081518084526118e58160208601602086016118a9565b601f01601f19169290920160200192915050565b60208152600061143360208301846118cd565b60006020828403121561191e57600080fd5b5035919050565b80356001600160a01b038116811461193c57600080fd5b919050565b6000806040838503121561195457600080fd5b61195d83611925565b946020939093013593505050565b60008060006060848603121561198057600080fd5b61198984611925565b925061199760208501611925565b9150604084013590509250925092565b6000602082840312156119b957600080fd5b61143382611925565b801515811461055157600080fd5b600080604083850312156119e357600080fd5b6119ec83611925565b915060208301356119fc816119c2565b809150509250929050565b634e487b7160e01b600052604160045260246000fd5b600067ffffffffffffffff80841115611a3857611a38611a07565b604051601f8501601f19908116603f01168101908282118183101715611a6057611a60611a07565b81604052809350858152868686011115611a7957600080fd5b858560208301376000602087830101525050509392505050565b60008060008060808587031215611aa957600080fd5b611ab285611925565b9350611ac060208601611925565b925060408501359150606085013567ffffffffffffffff811115611ae357600080fd5b8501601f81018713611af457600080fd5b611b0387823560208401611a1d565b91505092959194509250565b60008060408385031215611b2257600080fd5b611b2b83611925565b9150602083013567ffffffffffffffff811115611b4757600080fd5b8301601f81018513611b5857600080fd5b611b6785823560208401611a1d565b9150509250929050565b60008060408385031215611b8457600080fd5b611b8d83611925565b9150611b9b60208401611925565b90509250929050565b600181811c90821680611bb857607f821691505b602082108103611bd857634e487b7160e01b600052602260045260246000fd5b50919050565b6020808252602d908201527f4552433732313a2063616c6c6572206973206e6f7420746f6b656e206f776e6560408201526c1c881bdc88185c1c1c9bdd9959609a1b606082015260800190565b600060208284031215611c3d57600080fd5b8151611433816119c2565b60208082526025908201527f4552433732313a207472616e736665722066726f6d20696e636f72726563742060408201526437bbb732b960d91b606082015260800190565b60208082526032908201527f4552433732313a207472616e7366657220746f206e6f6e20455243373231526560408201527131b2b4bb32b91034b6b83632b6b2b73a32b960711b606082015260800190565b6020808252602b908201527f496e697469616c697a61626c653a20636f6e7472616374206973206e6f74206960408201526a6e697469616c697a696e6760a81b606082015260800190565b60008351611d3c8184602088016118a9565b835190830190611d508183602088016118a9565b01949350505050565b601f82111561053b57600081815260208120601f850160051c81016020861015611d805750805b601f850160051c820191505b81811015611d9f57828155600101611d8c565b505050505050565b815167ffffffffffffffff811115611dc157611dc1611a07565b611dd581611dcf8454611ba4565b84611d59565b602080601f831160018114611e0a5760008415611df25750858301515b600019600386901b1c1916600185901b178555611d9f565b600085815260208120601f198616915b82811015611e3957888601518255948401946001909101908401611e1a565b5085821015611e575787850151600019600388901b60f8161c191681555b5050505050600190811b01905550565b6001600160a01b0385811682528416602082015260408101839052608060608201819052600090611e9a908301846118cd565b9695505050505050565b600060208284031215611eb657600080fd5b81516114338161187656fea2646970667358221220dd0aa260fc21cca3b2c100e42f1a46fadbd07a7711de5c96d22f2eba7806038464736f6c63430008120033",
    "linkReferences": {}
  },
  "methodIdentifiers": {
    "approve(address,uint256)": "095ea7b3",
    "balanceOf(address)": "70a08231",
    "burn(uint256)": "42966c68",
    "getApproved(uint256)": "081812fc",
    "initialize(address)": "c4d66de8",
    "isApprovedForAll(address,address)": "e985e9c5",
    "name()": "06fdde03",
    "owner()": "8da5cb5b",
    "ownerOf(uint256)": "6352211e",
    "renounceOwnership()": "715018a6",
    "revoke(uint256)": "20c5429b",
    "safeMint(address,string)": "d204c45e",
    "safeTransferFrom(address,address,uint256)": "42842e0e",
    "safeTransferFrom(address,address,uint256,bytes)": "b88d4fde",
    "setApprovalForAll(address,bool)": "a22cb465",
    "supportsInterface(bytes4)": "01ffc9a7",
    "symbol()": "95d89b41",
    "tokenURI(uint256)": "c87b56dd",
    "transferFrom(address,address,uint256)": "23b872dd",
    "transferOwnership(address)": "f2fde38b",
    "verificationContract()": "7e222661"
  },
  "id": 0
}